{
  "transactions": [
    {
      "hash": "0x07f9c1e4ee50654b84d27ebdc15f5bf7058c71034b1686726a9d436eb153496e",
      "transactionType": "CREATE",
      "contractName": "GaugeType1",
      "contractAddress": "0xc38c819a9e681dccfba36e2612d4dbfbd4f55924",
      "function": null,
      "arguments": null,
      "transaction": {
        "from": "0xf885390b75035e94ac72aef3e0d0ed5ec3b85d37",
        "gas": "0x22e15d",
        "value": "0x0",
        "input": "0x60a06040523060805234801561001457600080fd5b5061001d610022565b6100d4565b7ff0c57e16840df040f15088dc2f81fe391c3923bec73e23a9662efc9c229c6a00805468010000000000000000900460ff16156100725760405163f92ee8a960e01b815260040160405180910390fd5b80546001600160401b03908116146100d15780546001600160401b0319166001600160401b0390811782556040519081527fc7f505b2f371ae2175ee4913f4499e1f2633a7b5936321eed1cdaeb6115181d29060200160405180910390a15b50565b608051610edf6100fd600039600081816107030152818161072c015261086d0152610edf6000f3fe6080604052600436106100a75760003560e01c8063715018a611610064578063715018a61461017d5780638da5cb5b1461019257806399eecb3b146101cf578063ad3cb1cc146101ef578063c0c53b8b1461022d578063f2fde38b1461024d57600080fd5b8063329eb839146100ac5780634611ed37146100c35780634c55b7de146100ef5780634d0392a8146101275780634f1ef2861461014757806352d1902d1461015a575b600080fd5b3480156100b857600080fd5b506100c161026d565b005b3480156100cf57600080fd5b506100d8600181565b60405160ff90911681526020015b60405180910390f35b3480156100fb57600080fd5b5060015461010f906001600160a01b031681565b6040516001600160a01b0390911681526020016100e6565b34801561013357600080fd5b506100c1610142366004610c70565b6102fc565b6100c1610155366004610cbb565b610470565b34801561016657600080fd5b5061016f61048f565b6040519081526020016100e6565b34801561018957600080fd5b506100c16104ac565b34801561019e57600080fd5b507f9016d09d72d40fdae2fd8ceac6b6234c7706214fd39c1cd1e609a0528c199300546001600160a01b031661010f565b3480156101db57600080fd5b5060005461010f906001600160a01b031681565b3480156101fb57600080fd5b50610220604051806040016040528060058152602001640352e302e360dc1b81525081565b6040516100e69190610da1565b34801561023957600080fd5b506100c1610248366004610dd4565b6104be565b34801561025957600080fd5b506100c1610268366004610e17565b610608565b61027561064b565b6001546040516370a0823160e01b81523060048201526102fa9133916001600160a01b03909116906370a0823190602401602060405180830381865afa1580156102c3573d6000803e3d6000fd5b505050506040513d601f19601f820116820180604052508101906102e79190610e32565b6001546001600160a01b031691906106a6565b565b61030461064b565b60006040518060600160405280838152602001463060405160200161033c9291909182526001600160a01b0316602082015260400190565b60408051808303601f190181529181528151602092830120835230928201929092526000548251636fb7c12960e01b815284516004820152918401516024830152918301516001600160a01b039081166044830152929350911690636fb7c129906064016020604051808303816000875af11580156103bf573d6000803e3d6000fd5b505050506040513d601f19601f820116820180604052508101906103e39190610e32565b506001546040516370a0823160e01b81523060048201526000916001600160a01b0316906370a0823190602401602060405180830381865afa15801561042d573d6000803e3d6000fd5b505050506040513d601f19601f820116820180604052508101906104519190610e32565b60015490915061046b906001600160a01b031633836106a6565b505050565b6104786106f8565b6104818261079d565b61048b82826107a5565b5050565b6000610499610862565b50600080516020610e8a83398151915290565b6104b461064b565b6102fa60006108ab565b7ff0c57e16840df040f15088dc2f81fe391c3923bec73e23a9662efc9c229c6a008054600160401b810460ff16159067ffffffffffffffff166000811580156105045750825b905060008267ffffffffffffffff1660011480156105215750303b155b90508115801561052f575080155b1561054d5760405163f92ee8a960e01b815260040160405180910390fd5b845467ffffffffffffffff19166001178555831561057757845460ff60401b1916600160401b1785555b600080546001600160a01b03808a166001600160a01b03199283161790925560018054928916929091169190911790556105b08861091c565b6105b861092d565b83156105fe57845460ff60401b19168555604051600181527fc7f505b2f371ae2175ee4913f4499e1f2633a7b5936321eed1cdaeb6115181d29060200160405180910390a15b5050505050505050565b61061061064b565b6001600160a01b03811661063f57604051631e4fbdf760e01b8152600060048201526024015b60405180910390fd5b610648816108ab565b50565b3361067d7f9016d09d72d40fdae2fd8ceac6b6234c7706214fd39c1cd1e609a0528c199300546001600160a01b031690565b6001600160a01b0316146102fa5760405163118cdaa760e01b8152336004820152602401610636565b604080516001600160a01b038416602482015260448082018490528251808303909101815260649091019091526020810180516001600160e01b031663a9059cbb60e01b17905261046b908490610935565b306001600160a01b037f000000000000000000000000000000000000000000000000000000000000000016148061077f57507f00000000000000000000000000000000000000000000000000000000000000006001600160a01b0316610773600080516020610e8a833981519152546001600160a01b031690565b6001600160a01b031614155b156102fa5760405163703e46dd60e11b815260040160405180910390fd5b61064861064b565b816001600160a01b03166352d1902d6040518163ffffffff1660e01b8152600401602060405180830381865afa9250505080156107ff575060408051601f3d908101601f191682019092526107fc91810190610e32565b60015b61082757604051634c9c8ce360e01b81526001600160a01b0383166004820152602401610636565b600080516020610e8a833981519152811461085857604051632a87526960e21b815260048101829052602401610636565b61046b8383610998565b306001600160a01b037f000000000000000000000000000000000000000000000000000000000000000016146102fa5760405163703e46dd60e11b815260040160405180910390fd5b7f9016d09d72d40fdae2fd8ceac6b6234c7706214fd39c1cd1e609a0528c19930080546001600160a01b031981166001600160a01b03848116918217845560405192169182907f8be0079c531659141344cd1fd0a4f28419497f9722a3daafe3b4186f6b6457e090600090a3505050565b6109246109ee565b61064881610a37565b6102fa6109ee565b600061094a6001600160a01b03841683610a3f565b9050805160001415801561096f57508080602001905181019061096d9190610e4b565b155b1561046b57604051635274afe760e01b81526001600160a01b0384166004820152602401610636565b6109a182610a54565b6040516001600160a01b038316907fbc7cd75a20ee27fd9adebab32041f755214dbc6bffa90cc0225b39da2e5c2d3b90600090a28051156109e65761046b8282610ab9565b61048b610b2f565b7ff0c57e16840df040f15088dc2f81fe391c3923bec73e23a9662efc9c229c6a0054600160401b900460ff166102fa57604051631afcd79f60e31b815260040160405180910390fd5b6106106109ee565b6060610a4d83836000610b4e565b9392505050565b806001600160a01b03163b600003610a8a57604051634c9c8ce360e01b81526001600160a01b0382166004820152602401610636565b600080516020610e8a83398151915280546001600160a01b0319166001600160a01b0392909216919091179055565b6060600080846001600160a01b031684604051610ad69190610e6d565b600060405180830381855af49150503d8060008114610b11576040519150601f19603f3d011682016040523d82523d6000602084013e610b16565b606091505b5091509150610b26858383610beb565b95945050505050565b34156102fa5760405163b398979f60e01b815260040160405180910390fd5b606081471015610b735760405163cd78605960e01b8152306004820152602401610636565b600080856001600160a01b03168486604051610b8f9190610e6d565b60006040518083038185875af1925050503d8060008114610bcc576040519150601f19603f3d011682016040523d82523d6000602084013e610bd1565b606091505b5091509150610be1868383610beb565b9695505050505050565b606082610c0057610bfb82610c47565b610a4d565b8151158015610c1757506001600160a01b0384163b155b15610c4057604051639996b31560e01b81526001600160a01b0385166004820152602401610636565b5080610a4d565b805115610c575780518082602001fd5b604051630a12f52160e11b815260040160405180910390fd5b600060208284031215610c8257600080fd5b5035919050565b80356001600160a01b0381168114610ca057600080fd5b919050565b634e487b7160e01b600052604160045260246000fd5b60008060408385031215610cce57600080fd5b610cd783610c89565b9150602083013567ffffffffffffffff80821115610cf457600080fd5b818501915085601f830112610d0857600080fd5b813581811115610d1a57610d1a610ca5565b604051601f8201601f19908116603f01168101908382118183101715610d4257610d42610ca5565b81604052828152886020848701011115610d5b57600080fd5b8260208601602083013760006020848301015280955050505050509250929050565b60005b83811015610d98578181015183820152602001610d80565b50506000910152565b6020815260008251806020840152610dc0816040850160208701610d7d565b601f01601f19169190910160400192915050565b600080600060608486031215610de957600080fd5b610df284610c89565b9250610e0060208501610c89565b9150610e0e60408501610c89565b90509250925092565b600060208284031215610e2957600080fd5b610a4d82610c89565b600060208284031215610e4457600080fd5b5051919050565b600060208284031215610e5d57600080fd5b81518015158114610a4d57600080fd5b60008251610e7f818460208701610d7d565b919091019291505056fe360894a13ba1a3210667c828492db98dca3e2076cc3735a920a3ca505d382bbca264697066735822122069ac776608b9eaaa026a11598ddbbaed5749fe9b26442c68ab73121b4096b53464736f6c63430008170033",
        "nonce": "0x43",
        "chainId": "0xa4b1"
      },
      "additionalContracts": [],
      "isFixedGasLimit": false
    },
    {
      "hash": "0x7a540cc5fcdab7f31635a1ac112d632651bf69ab2eac308dcca93b722b9a38fb",
      "transactionType": "CREATE",
      "contractName": "ERC1967Proxy",
      "contractAddress": "0xb67d5a782f87526c3780f80546ad19a25933fa6d",
      "function": null,
      "arguments": [
        "0xC38C819a9e681DCcFba36E2612D4dBfBd4F55924",
        "0xc0c53b8b000000000000000000000000f885390b75035e94ac72aef3e0d0ed5ec3b85d37000000000000000000000000054ccfa2fc555c3c275f091ad86b992da0206858000000000000000000000000acc51ffdef63fb0c014c882267c3a17261a5ed50"
      ],
      "transaction": {
        "from": "0xf885390b75035e94ac72aef3e0d0ed5ec3b85d37",
        "gas": "0x47c4f",
        "value": "0x0",
        "input": "0x608060405260405161040a38038061040a83398101604081905261002291610268565b61002c8282610033565b5050610352565b61003c82610092565b6040516001600160a01b038316907fbc7cd75a20ee27fd9adebab32041f755214dbc6bffa90cc0225b39da2e5c2d3b90600090a280511561008657610081828261010e565b505050565b61008e610185565b5050565b806001600160a01b03163b6000036100cd57604051634c9c8ce360e01b81526001600160a01b03821660048201526024015b60405180910390fd5b7f360894a13ba1a3210667c828492db98dca3e2076cc3735a920a3ca505d382bbc80546001600160a01b0319166001600160a01b0392909216919091179055565b6060600080846001600160a01b03168460405161012b9190610336565b600060405180830381855af49150503d8060008114610166576040519150601f19603f3d011682016040523d82523d6000602084013e61016b565b606091505b50909250905061017c8583836101a6565b95945050505050565b34156101a45760405163b398979f60e01b815260040160405180910390fd5b565b6060826101bb576101b682610205565b6101fe565b81511580156101d257506001600160a01b0384163b155b156101fb57604051639996b31560e01b81526001600160a01b03851660048201526024016100c4565b50805b9392505050565b8051156102155780518082602001fd5b604051630a12f52160e11b815260040160405180910390fd5b634e487b7160e01b600052604160045260246000fd5b60005b8381101561025f578181015183820152602001610247565b50506000910152565b6000806040838503121561027b57600080fd5b82516001600160a01b038116811461029257600080fd5b60208401519092506001600160401b03808211156102af57600080fd5b818501915085601f8301126102c357600080fd5b8151818111156102d5576102d561022e565b604051601f8201601f19908116603f011681019083821181831017156102fd576102fd61022e565b8160405282815288602084870101111561031657600080fd5b610327836020830160208801610244565b80955050505050509250929050565b60008251610348818460208701610244565b9190910192915050565b60aa806103606000396000f3fe6080604052600a600c565b005b60186014601a565b6051565b565b6000604c7f360894a13ba1a3210667c828492db98dca3e2076cc3735a920a3ca505d382bbc546001600160a01b031690565b905090565b3660008037600080366000845af43d6000803e808015606f573d6000f35b3d6000fdfea264697066735822122076efb2559dd012d0004d0e971ab9f300a5bcd6a5b160a4d8726f19682eb3e32864736f6c63430008170033000000000000000000000000c38c819a9e681dccfba36e2612d4dbfbd4f5592400000000000000000000000000000000000000000000000000000000000000400000000000000000000000000000000000000000000000000000000000000064c0c53b8b000000000000000000000000f885390b75035e94ac72aef3e0d0ed5ec3b85d37000000000000000000000000054ccfa2fc555c3c275f091ad86b992da0206858000000000000000000000000acc51ffdef63fb0c014c882267c3a17261a5ed5000000000000000000000000000000000000000000000000000000000",
        "nonce": "0x44",
        "chainId": "0xa4b1"
      },
      "additionalContracts": [],
      "isFixedGasLimit": false
    },
    {
      "hash": "0x3da91b191f3d4fa6175e85f2840550282b04d20e2e59f137e5ff798ddca29f9b",
      "transactionType": "CREATE",
      "contractName": "ERC1967Proxy",
      "contractAddress": "0xf9a6f4a7d4be3753ddd97f2635e80c8d854d787f",
      "function": null,
      "arguments": [
        "0xC38C819a9e681DCcFba36E2612D4dBfBd4F55924",
        "0xc0c53b8b000000000000000000000000f885390b75035e94ac72aef3e0d0ed5ec3b85d37000000000000000000000000054ccfa2fc555c3c275f091ad86b992da0206858000000000000000000000000acc51ffdef63fb0c014c882267c3a17261a5ed50"
      ],
      "transaction": {
        "from": "0xf885390b75035e94ac72aef3e0d0ed5ec3b85d37",
        "gas": "0x47c4f",
        "value": "0x0",
        "input": "0x608060405260405161040a38038061040a83398101604081905261002291610268565b61002c8282610033565b5050610352565b61003c82610092565b6040516001600160a01b038316907fbc7cd75a20ee27fd9adebab32041f755214dbc6bffa90cc0225b39da2e5c2d3b90600090a280511561008657610081828261010e565b505050565b61008e610185565b5050565b806001600160a01b03163b6000036100cd57604051634c9c8ce360e01b81526001600160a01b03821660048201526024015b60405180910390fd5b7f360894a13ba1a3210667c828492db98dca3e2076cc3735a920a3ca505d382bbc80546001600160a01b0319166001600160a01b0392909216919091179055565b6060600080846001600160a01b03168460405161012b9190610336565b600060405180830381855af49150503d8060008114610166576040519150601f19603f3d011682016040523d82523d6000602084013e61016b565b606091505b50909250905061017c8583836101a6565b95945050505050565b34156101a45760405163b398979f60e01b815260040160405180910390fd5b565b6060826101bb576101b682610205565b6101fe565b81511580156101d257506001600160a01b0384163b155b156101fb57604051639996b31560e01b81526001600160a01b03851660048201526024016100c4565b50805b9392505050565b8051156102155780518082602001fd5b604051630a12f52160e11b815260040160405180910390fd5b634e487b7160e01b600052604160045260246000fd5b60005b8381101561025f578181015183820152602001610247565b50506000910152565b6000806040838503121561027b57600080fd5b82516001600160a01b038116811461029257600080fd5b60208401519092506001600160401b03808211156102af57600080fd5b818501915085601f8301126102c357600080fd5b8151818111156102d5576102d561022e565b604051601f8201601f19908116603f011681019083821181831017156102fd576102fd61022e565b8160405282815288602084870101111561031657600080fd5b610327836020830160208801610244565b80955050505050509250929050565b60008251610348818460208701610244565b9190910192915050565b60aa806103606000396000f3fe6080604052600a600c565b005b60186014601a565b6051565b565b6000604c7f360894a13ba1a3210667c828492db98dca3e2076cc3735a920a3ca505d382bbc546001600160a01b031690565b905090565b3660008037600080366000845af43d6000803e808015606f573d6000f35b3d6000fdfea264697066735822122076efb2559dd012d0004d0e971ab9f300a5bcd6a5b160a4d8726f19682eb3e32864736f6c63430008170033000000000000000000000000c38c819a9e681dccfba36e2612d4dbfbd4f5592400000000000000000000000000000000000000000000000000000000000000400000000000000000000000000000000000000000000000000000000000000064c0c53b8b000000000000000000000000f885390b75035e94ac72aef3e0d0ed5ec3b85d37000000000000000000000000054ccfa2fc555c3c275f091ad86b992da0206858000000000000000000000000acc51ffdef63fb0c014c882267c3a17261a5ed5000000000000000000000000000000000000000000000000000000000",
        "nonce": "0x45",
        "chainId": "0xa4b1"
      },
      "additionalContracts": [],
      "isFixedGasLimit": false
    },
    {
      "hash": "0x0691ae1aeb70d495bd9a8769bc93ca5d2fe32bb172252888a98e99256ad1b74c",
      "transactionType": "CREATE",
      "contractName": "ERC1967Proxy",
      "contractAddress": "0x9a1b3ba6df9b0fa4013f9d03d3c653a886368117",
      "function": null,
      "arguments": [
        "0xC38C819a9e681DCcFba36E2612D4dBfBd4F55924",
        "0xc0c53b8b000000000000000000000000f885390b75035e94ac72aef3e0d0ed5ec3b85d37000000000000000000000000054ccfa2fc555c3c275f091ad86b992da0206858000000000000000000000000acc51ffdef63fb0c014c882267c3a17261a5ed50"
      ],
      "transaction": {
        "from": "0xf885390b75035e94ac72aef3e0d0ed5ec3b85d37",
        "gas": "0x47c4f",
        "value": "0x0",
        "input": "0x608060405260405161040a38038061040a83398101604081905261002291610268565b61002c8282610033565b5050610352565b61003c82610092565b6040516001600160a01b038316907fbc7cd75a20ee27fd9adebab32041f755214dbc6bffa90cc0225b39da2e5c2d3b90600090a280511561008657610081828261010e565b505050565b61008e610185565b5050565b806001600160a01b03163b6000036100cd57604051634c9c8ce360e01b81526001600160a01b03821660048201526024015b60405180910390fd5b7f360894a13ba1a3210667c828492db98dca3e2076cc3735a920a3ca505d382bbc80546001600160a01b0319166001600160a01b0392909216919091179055565b6060600080846001600160a01b03168460405161012b9190610336565b600060405180830381855af49150503d8060008114610166576040519150601f19603f3d011682016040523d82523d6000602084013e61016b565b606091505b50909250905061017c8583836101a6565b95945050505050565b34156101a45760405163b398979f60e01b815260040160405180910390fd5b565b6060826101bb576101b682610205565b6101fe565b81511580156101d257506001600160a01b0384163b155b156101fb57604051639996b31560e01b81526001600160a01b03851660048201526024016100c4565b50805b9392505050565b8051156102155780518082602001fd5b604051630a12f52160e11b815260040160405180910390fd5b634e487b7160e01b600052604160045260246000fd5b60005b8381101561025f578181015183820152602001610247565b50506000910152565b6000806040838503121561027b57600080fd5b82516001600160a01b038116811461029257600080fd5b60208401519092506001600160401b03808211156102af57600080fd5b818501915085601f8301126102c357600080fd5b8151818111156102d5576102d561022e565b604051601f8201601f19908116603f011681019083821181831017156102fd576102fd61022e565b8160405282815288602084870101111561031657600080fd5b610327836020830160208801610244565b80955050505050509250929050565b60008251610348818460208701610244565b9190910192915050565b60aa806103606000396000f3fe6080604052600a600c565b005b60186014601a565b6051565b565b6000604c7f360894a13ba1a3210667c828492db98dca3e2076cc3735a920a3ca505d382bbc546001600160a01b031690565b905090565b3660008037600080366000845af43d6000803e808015606f573d6000f35b3d6000fdfea264697066735822122076efb2559dd012d0004d0e971ab9f300a5bcd6a5b160a4d8726f19682eb3e32864736f6c63430008170033000000000000000000000000c38c819a9e681dccfba36e2612d4dbfbd4f5592400000000000000000000000000000000000000000000000000000000000000400000000000000000000000000000000000000000000000000000000000000064c0c53b8b000000000000000000000000f885390b75035e94ac72aef3e0d0ed5ec3b85d37000000000000000000000000054ccfa2fc555c3c275f091ad86b992da0206858000000000000000000000000acc51ffdef63fb0c014c882267c3a17261a5ed5000000000000000000000000000000000000000000000000000000000",
        "nonce": "0x46",
        "chainId": "0xa4b1"
      },
      "additionalContracts": [],
      "isFixedGasLimit": false
    },
    {
      "hash": "0x52d48c3b06ba3a9975ffca402f2053e9fce77be442523b459fa1bc48e123a653",
      "transactionType": "CREATE",
      "contractName": "ERC1967Proxy",
      "contractAddress": "0x016a72af7da51fcd32ca0762fc531fc6f5344fda",
      "function": null,
      "arguments": [
        "0xC38C819a9e681DCcFba36E2612D4dBfBd4F55924",
        "0xc0c53b8b000000000000000000000000f885390b75035e94ac72aef3e0d0ed5ec3b85d37000000000000000000000000054ccfa2fc555c3c275f091ad86b992da0206858000000000000000000000000acc51ffdef63fb0c014c882267c3a17261a5ed50"
      ],
      "transaction": {
        "from": "0xf885390b75035e94ac72aef3e0d0ed5ec3b85d37",
        "gas": "0x47c4f",
        "value": "0x0",
        "input": "0x608060405260405161040a38038061040a83398101604081905261002291610268565b61002c8282610033565b5050610352565b61003c82610092565b6040516001600160a01b038316907fbc7cd75a20ee27fd9adebab32041f755214dbc6bffa90cc0225b39da2e5c2d3b90600090a280511561008657610081828261010e565b505050565b61008e610185565b5050565b806001600160a01b03163b6000036100cd57604051634c9c8ce360e01b81526001600160a01b03821660048201526024015b60405180910390fd5b7f360894a13ba1a3210667c828492db98dca3e2076cc3735a920a3ca505d382bbc80546001600160a01b0319166001600160a01b0392909216919091179055565b6060600080846001600160a01b03168460405161012b9190610336565b600060405180830381855af49150503d8060008114610166576040519150601f19603f3d011682016040523d82523d6000602084013e61016b565b606091505b50909250905061017c8583836101a6565b95945050505050565b34156101a45760405163b398979f60e01b815260040160405180910390fd5b565b6060826101bb576101b682610205565b6101fe565b81511580156101d257506001600160a01b0384163b155b156101fb57604051639996b31560e01b81526001600160a01b03851660048201526024016100c4565b50805b9392505050565b8051156102155780518082602001fd5b604051630a12f52160e11b815260040160405180910390fd5b634e487b7160e01b600052604160045260246000fd5b60005b8381101561025f578181015183820152602001610247565b50506000910152565b6000806040838503121561027b57600080fd5b82516001600160a01b038116811461029257600080fd5b60208401519092506001600160401b03808211156102af57600080fd5b818501915085601f8301126102c357600080fd5b8151818111156102d5576102d561022e565b604051601f8201601f19908116603f011681019083821181831017156102fd576102fd61022e565b8160405282815288602084870101111561031657600080fd5b610327836020830160208801610244565b80955050505050509250929050565b60008251610348818460208701610244565b9190910192915050565b60aa806103606000396000f3fe6080604052600a600c565b005b60186014601a565b6051565b565b6000604c7f360894a13ba1a3210667c828492db98dca3e2076cc3735a920a3ca505d382bbc546001600160a01b031690565b905090565b3660008037600080366000845af43d6000803e808015606f573d6000f35b3d6000fdfea264697066735822122076efb2559dd012d0004d0e971ab9f300a5bcd6a5b160a4d8726f19682eb3e32864736f6c63430008170033000000000000000000000000c38c819a9e681dccfba36e2612d4dbfbd4f5592400000000000000000000000000000000000000000000000000000000000000400000000000000000000000000000000000000000000000000000000000000064c0c53b8b000000000000000000000000f885390b75035e94ac72aef3e0d0ed5ec3b85d37000000000000000000000000054ccfa2fc555c3c275f091ad86b992da0206858000000000000000000000000acc51ffdef63fb0c014c882267c3a17261a5ed5000000000000000000000000000000000000000000000000000000000",
        "nonce": "0x47",
        "chainId": "0xa4b1"
      },
      "additionalContracts": [],
      "isFixedGasLimit": false
    },
    {
      "hash": "0x8646607364e430b319fca0dbcdf88c142b94c6bf8bdb81f26de632cb28df2069",
      "transactionType": "CREATE",
      "contractName": "ERC1967Proxy",
      "contractAddress": "0x54162a470a51504e9d60d8aca1b8401a3d79be3c",
      "function": null,
      "arguments": [
        "0xC38C819a9e681DCcFba36E2612D4dBfBd4F55924",
        "0xc0c53b8b000000000000000000000000f885390b75035e94ac72aef3e0d0ed5ec3b85d37000000000000000000000000054ccfa2fc555c3c275f091ad86b992da0206858000000000000000000000000acc51ffdef63fb0c014c882267c3a17261a5ed50"
      ],
      "transaction": {
        "from": "0xf885390b75035e94ac72aef3e0d0ed5ec3b85d37",
        "gas": "0x47c4f",
        "value": "0x0",
        "input": "0x608060405260405161040a38038061040a83398101604081905261002291610268565b61002c8282610033565b5050610352565b61003c82610092565b6040516001600160a01b038316907fbc7cd75a20ee27fd9adebab32041f755214dbc6bffa90cc0225b39da2e5c2d3b90600090a280511561008657610081828261010e565b505050565b61008e610185565b5050565b806001600160a01b03163b6000036100cd57604051634c9c8ce360e01b81526001600160a01b03821660048201526024015b60405180910390fd5b7f360894a13ba1a3210667c828492db98dca3e2076cc3735a920a3ca505d382bbc80546001600160a01b0319166001600160a01b0392909216919091179055565b6060600080846001600160a01b03168460405161012b9190610336565b600060405180830381855af49150503d8060008114610166576040519150601f19603f3d011682016040523d82523d6000602084013e61016b565b606091505b50909250905061017c8583836101a6565b95945050505050565b34156101a45760405163b398979f60e01b815260040160405180910390fd5b565b6060826101bb576101b682610205565b6101fe565b81511580156101d257506001600160a01b0384163b155b156101fb57604051639996b31560e01b81526001600160a01b03851660048201526024016100c4565b50805b9392505050565b8051156102155780518082602001fd5b604051630a12f52160e11b815260040160405180910390fd5b634e487b7160e01b600052604160045260246000fd5b60005b8381101561025f578181015183820152602001610247565b50506000910152565b6000806040838503121561027b57600080fd5b82516001600160a01b038116811461029257600080fd5b60208401519092506001600160401b03808211156102af57600080fd5b818501915085601f8301126102c357600080fd5b8151818111156102d5576102d561022e565b604051601f8201601f19908116603f011681019083821181831017156102fd576102fd61022e565b8160405282815288602084870101111561031657600080fd5b610327836020830160208801610244565b80955050505050509250929050565b60008251610348818460208701610244565b9190910192915050565b60aa806103606000396000f3fe6080604052600a600c565b005b60186014601a565b6051565b565b6000604c7f360894a13ba1a3210667c828492db98dca3e2076cc3735a920a3ca505d382bbc546001600160a01b031690565b905090565b3660008037600080366000845af43d6000803e808015606f573d6000f35b3d6000fdfea264697066735822122076efb2559dd012d0004d0e971ab9f300a5bcd6a5b160a4d8726f19682eb3e32864736f6c63430008170033000000000000000000000000c38c819a9e681dccfba36e2612d4dbfbd4f5592400000000000000000000000000000000000000000000000000000000000000400000000000000000000000000000000000000000000000000000000000000064c0c53b8b000000000000000000000000f885390b75035e94ac72aef3e0d0ed5ec3b85d37000000000000000000000000054ccfa2fc555c3c275f091ad86b992da0206858000000000000000000000000acc51ffdef63fb0c014c882267c3a17261a5ed5000000000000000000000000000000000000000000000000000000000",
        "nonce": "0x48",
        "chainId": "0xa4b1"
      },
      "additionalContracts": [],
      "isFixedGasLimit": false
    },
    {
      "hash": "0x4d52be94b7a1835f981d60bb65c3afdc7b430927a58897a74fe806db3d4daa6c",
      "transactionType": "CALL",
      "contractName": null,
      "contractAddress": "0x054ccfa2fc555c3c275f091ad86b992da0206858",
      "function": "setTotalRewardPerEpoch(uint256)",
      "arguments": [
        "50000000000000000000000"
      ],
      "transaction": {
        "from": "0xf885390b75035e94ac72aef3e0d0ed5ec3b85d37",
        "to": "0x054ccfa2fc555c3c275f091ad86b992da0206858",
        "gas": "0x272c8",
        "value": "0x0",
        "input": "0x5777bedc000000000000000000000000000000000000000000000a968163f0a57b400000",
        "nonce": "0x49",
        "chainId": "0xa4b1"
      },
      "additionalContracts": [],
      "isFixedGasLimit": false
    },
    {
      "hash": "0xbefb57d2229478bec4aa2cfb4ec5cf9ec4337d8683c0ed2a6ff65dd7c9c215c5",
      "transactionType": "CALL",
      "contractName": null,
      "contractAddress": "0x054ccfa2fc555c3c275f091ad86b992da0206858",
      "function": "addGauge((uint256,uint256,uint8,address))",
      "arguments": [
        "(42161, 3250000000000000000000, 1, 0xb67d5a782F87526c3780f80546aD19a25933FA6D)"
      ],
      "transaction": {
        "from": "0xf885390b75035e94ac72aef3e0d0ed5ec3b85d37",
        "to": "0x054ccfa2fc555c3c275f091ad86b992da0206858",
        "gas": "0x35332",
        "value": "0x0",
        "input": "0xb5cd60cf000000000000000000000000000000000000000000000000000000000000a4b10000000000000000000000000000000000000000000000b02ecf74c3138800000000000000000000000000000000000000000000000000000000000000000001000000000000000000000000b67d5a782f87526c3780f80546ad19a25933fa6d",
        "nonce": "0x4a",
        "chainId": "0xa4b1"
      },
      "additionalContracts": [],
      "isFixedGasLimit": false
    },
    {
      "hash": "0xd55ecf667039cf9ecb9522c2ebc3ec99ffc648ba7c8e9aa6dcaeb4ca11d78c0a",
      "transactionType": "CALL",
      "contractName": null,
      "contractAddress": "0x054ccfa2fc555c3c275f091ad86b992da0206858",
      "function": "addGauge((uint256,uint256,uint8,address))",
      "arguments": [
        "(42161, 3250000000000000000000, 1, 0xf9A6F4a7d4bE3753DDd97F2635E80C8D854d787F)"
      ],
      "transaction": {
        "from": "0xf885390b75035e94ac72aef3e0d0ed5ec3b85d37",
        "to": "0x054ccfa2fc555c3c275f091ad86b992da0206858",
        "gas": "0x29aaa",
        "value": "0x0",
        "input": "0xb5cd60cf000000000000000000000000000000000000000000000000000000000000a4b10000000000000000000000000000000000000000000000b02ecf74c3138800000000000000000000000000000000000000000000000000000000000000000001000000000000000000000000f9a6f4a7d4be3753ddd97f2635e80c8d854d787f",
        "nonce": "0x4b",
        "chainId": "0xa4b1"
      },
      "additionalContracts": [],
      "isFixedGasLimit": false
    },
    {
      "hash": "0xdf78cec9476bbbec76926f937b0504b5ded27d9bddbcc63caaa0cd9574e79e1d",
      "transactionType": "CALL",
      "contractName": null,
      "contractAddress": "0x054ccfa2fc555c3c275f091ad86b992da0206858",
      "function": "addGauge((uint256,uint256,uint8,address))",
      "arguments": [
        "(42161, 3250000000000000000000, 1, 0x9A1B3ba6DF9B0fA4013F9d03d3C653a886368117)"
      ],
      "transaction": {
        "from": "0xf885390b75035e94ac72aef3e0d0ed5ec3b85d37",
        "to": "0x054ccfa2fc555c3c275f091ad86b992da0206858",
        "gas": "0x29aaa",
        "value": "0x0",
        "input": "0xb5cd60cf000000000000000000000000000000000000000000000000000000000000a4b10000000000000000000000000000000000000000000000b02ecf74c31388000000000000000000000000000000000000000000000000000000000000000000010000000000000000000000009a1b3ba6df9b0fa4013f9d03d3c653a886368117",
        "nonce": "0x4c",
        "chainId": "0xa4b1"
      },
      "additionalContracts": [],
      "isFixedGasLimit": false
    },
    {
      "hash": "0xf8f74bd754723aab3320dd7d8ea4d0fe359ac2b10d2e4834bbabf321b6aa8264",
      "transactionType": "CALL",
      "contractName": null,
      "contractAddress": "0x054ccfa2fc555c3c275f091ad86b992da0206858",
      "function": "addGauge((uint256,uint256,uint8,address))",
      "arguments": [
        "(42161, 3250000000000000000000, 1, 0x016A72AF7DA51fcD32cA0762FC531fc6f5344FDa)"
      ],
      "transaction": {
        "from": "0xf885390b75035e94ac72aef3e0d0ed5ec3b85d37",
        "to": "0x054ccfa2fc555c3c275f091ad86b992da0206858",
        "gas": "0x29aaa",
        "value": "0x0",
        "input": "0xb5cd60cf000000000000000000000000000000000000000000000000000000000000a4b10000000000000000000000000000000000000000000000b02ecf74c3138800000000000000000000000000000000000000000000000000000000000000000001000000000000000000000000016a72af7da51fcd32ca0762fc531fc6f5344fda",
        "nonce": "0x4d",
        "chainId": "0xa4b1"
      },
      "additionalContracts": [],
      "isFixedGasLimit": false
    },
    {
      "hash": "0x6c2e6d01f90a70a24e898c1aba5f3f9e5afaa8d82181a79131569a69bd5a9849",
      "transactionType": "CALL",
      "contractName": null,
      "contractAddress": "0x054ccfa2fc555c3c275f091ad86b992da0206858",
      "function": "addGauge((uint256,uint256,uint8,address))",
      "arguments": [
        "(42161, 2000000000000000000000, 1, 0x9A1B3ba6DF9B0fA4013F9d03d3C653a886368117)"
      ],
      "transaction": {
        "from": "0xf885390b75035e94ac72aef3e0d0ed5ec3b85d37",
        "to": "0x054ccfa2fc555c3c275f091ad86b992da0206858",
        "gas": "0x167a9",
        "value": "0x0",
        "input": "0xb5cd60cf000000000000000000000000000000000000000000000000000000000000a4b100000000000000000000000000000000000000000000006c6b935b8bbd40000000000000000000000000000000000000000000000000000000000000000000010000000000000000000000009a1b3ba6df9b0fa4013f9d03d3c653a886368117",
        "nonce": "0x4e",
        "chainId": "0xa4b1"
      },
      "additionalContracts": [],
      "isFixedGasLimit": false
    }
  ],
  "receipts": [
    {
      "status": "0x1",
      "cumulativeGasUsed": "0x282678",
      "logs": [
        {
          "address": "0xc38c819a9e681dccfba36e2612d4dbfbd4f55924",
          "topics": [
            "0xc7f505b2f371ae2175ee4913f4499e1f2633a7b5936321eed1cdaeb6115181d2"
          ],
          "data": "0x000000000000000000000000000000000000000000000000ffffffffffffffff",
          "blockHash": "0xb6780f3332a0ec5f3780a82e089114108167cb8559a4032e17dd0576dc39179f",
          "blockNumber": "0xf7f8d1a",
          "transactionHash": "0x07f9c1e4ee50654b84d27ebdc15f5bf7058c71034b1686726a9d436eb153496e",
          "transactionIndex": "0x5",
          "logIndex": "0x9",
          "removed": false
        }
      ],
      "logsBloom": "0x00000000000000000010000000000000000000000000000000000000000000000000000000000080000000000000000000000000000000000000000000000000000000000000000000000000000000000000000000000000000000000000000000000000000000000000000000000000000000000000000000000000000000000000000000000000000800000000000000000000000080000000000000000000000000000000000000000000400000000000000000000000000000000000000000000000000000000000000000000000000000000004000000000000000000000000000000000000000000000000000000000000000000000000000000000000",
      "type": "0x2",
      "transactionHash": "0x07f9c1e4ee50654b84d27ebdc15f5bf7058c71034b1686726a9d436eb153496e",
      "transactionIndex": "0x5",
      "blockHash": "0xb6780f3332a0ec5f3780a82e089114108167cb8559a4032e17dd0576dc39179f",
      "blockNumber": "0xf7f8d1a",
      "gasUsed": "0x190a65",
      "effectiveGasPrice": "0x989680",
      "from": "0xf885390b75035e94ac72aef3e0d0ed5ec3b85d37",
      "to": null,
      "contractAddress": "0xc38c819a9e681dccfba36e2612d4dbfbd4f55924",
      "gasUsedForL1": "0xb496b",
      "l1BlockNumber": "0x13eb373"
    },
    {
      "status": "0x1",
      "cumulativeGasUsed": "0xbe804",
      "logs": [
        {
          "address": "0xb67d5a782f87526c3780f80546ad19a25933fa6d",
          "topics": [
            "0xbc7cd75a20ee27fd9adebab32041f755214dbc6bffa90cc0225b39da2e5c2d3b",
            "0x000000000000000000000000c38c819a9e681dccfba36e2612d4dbfbd4f55924"
          ],
          "data": "0x",
          "blockHash": "0x155438fd6e3f76324286c755dfbe067ab23a03e4faee6d261051c2473f29a344",
          "blockNumber": "0xf7f8d21",
          "transactionHash": "0x7a540cc5fcdab7f31635a1ac112d632651bf69ab2eac308dcca93b722b9a38fb",
          "transactionIndex": "0x2",
          "logIndex": "0x4",
          "removed": false
        },
        {
          "address": "0xb67d5a782f87526c3780f80546ad19a25933fa6d",
          "topics": [
            "0x8be0079c531659141344cd1fd0a4f28419497f9722a3daafe3b4186f6b6457e0",
            "0x0000000000000000000000000000000000000000000000000000000000000000",
            "0x000000000000000000000000f885390b75035e94ac72aef3e0d0ed5ec3b85d37"
          ],
          "data": "0x",
          "blockHash": "0x155438fd6e3f76324286c755dfbe067ab23a03e4faee6d261051c2473f29a344",
          "blockNumber": "0xf7f8d21",
          "transactionHash": "0x7a540cc5fcdab7f31635a1ac112d632651bf69ab2eac308dcca93b722b9a38fb",
          "transactionIndex": "0x2",
          "logIndex": "0x5",
          "removed": false
        },
        {
          "address": "0xb67d5a782f87526c3780f80546ad19a25933fa6d",
          "topics": [
            "0xc7f505b2f371ae2175ee4913f4499e1f2633a7b5936321eed1cdaeb6115181d2"
          ],
          "data": "0x0000000000000000000000000000000000000000000000000000000000000001",
          "blockHash": "0x155438fd6e3f76324286c755dfbe067ab23a03e4faee6d261051c2473f29a344",
          "blockNumber": "0xf7f8d21",
          "transactionHash": "0x7a540cc5fcdab7f31635a1ac112d632651bf69ab2eac308dcca93b722b9a38fb",
          "transactionIndex": "0x2",
          "logIndex": "0x6",
          "removed": false
        }
      ],
      "logsBloom": "0x00000000000020000000000000000000400000000400000000801000000000000000000000000000000000000000000000000000000000000040000000000000000000000000000000000400000002000001000000000000000200000000000000000000020000000008000000000800000000000000000000000000000000400000000000000000000800000000000000000000000080000000000000000000000000000000000000000000000000000000000000000000000000000000000000000020000000000000000000000000000000000004000100000000000020000000000000000000000000000000000000000000000000000000000000000000",
      "type": "0x2",
      "transactionHash": "0x7a540cc5fcdab7f31635a1ac112d632651bf69ab2eac308dcca93b722b9a38fb",
      "transactionIndex": "0x2",
      "blockHash": "0x155438fd6e3f76324286c755dfbe067ab23a03e4faee6d261051c2473f29a344",
      "blockNumber": "0xf7f8d21",
      "gasUsed": "0x85eca",
      "effectiveGasPrice": "0x989680",
      "from": "0xf885390b75035e94ac72aef3e0d0ed5ec3b85d37",
      "to": null,
      "contractAddress": "0xb67d5a782f87526c3780f80546ad19a25933fa6d",
      "gasUsedForL1": "0x4eb29",
      "l1BlockNumber": "0x13eb373"
    },
    {
      "status": "0x1",
      "cumulativeGasUsed": "0xf1899",
      "logs": [
        {
          "address": "0xf9a6f4a7d4be3753ddd97f2635e80c8d854d787f",
          "topics": [
            "0xbc7cd75a20ee27fd9adebab32041f755214dbc6bffa90cc0225b39da2e5c2d3b",
            "0x000000000000000000000000c38c819a9e681dccfba36e2612d4dbfbd4f55924"
          ],
          "data": "0x",
          "blockHash": "0xe94c80c09d60f185d58710ce4e97ad523366e47855ee685d8e0c23bb6c309543",
          "blockNumber": "0xf7f8d29",
          "transactionHash": "0x3da91b191f3d4fa6175e85f2840550282b04d20e2e59f137e5ff798ddca29f9b",
          "transactionIndex": "0x2",
          "logIndex": "0x5",
          "removed": false
        },
        {
          "address": "0xf9a6f4a7d4be3753ddd97f2635e80c8d854d787f",
          "topics": [
            "0x8be0079c531659141344cd1fd0a4f28419497f9722a3daafe3b4186f6b6457e0",
            "0x0000000000000000000000000000000000000000000000000000000000000000",
            "0x000000000000000000000000f885390b75035e94ac72aef3e0d0ed5ec3b85d37"
          ],
          "data": "0x",
          "blockHash": "0xe94c80c09d60f185d58710ce4e97ad523366e47855ee685d8e0c23bb6c309543",
          "blockNumber": "0xf7f8d29",
          "transactionHash": "0x3da91b191f3d4fa6175e85f2840550282b04d20e2e59f137e5ff798ddca29f9b",
          "transactionIndex": "0x2",
          "logIndex": "0x6",
          "removed": false
        },
        {
          "address": "0xf9a6f4a7d4be3753ddd97f2635e80c8d854d787f",
          "topics": [
            "0xc7f505b2f371ae2175ee4913f4499e1f2633a7b5936321eed1cdaeb6115181d2"
          ],
          "data": "0x0000000000000000000000000000000000000000000000000000000000000001",
          "blockHash": "0xe94c80c09d60f185d58710ce4e97ad523366e47855ee685d8e0c23bb6c309543",
          "blockNumber": "0xf7f8d29",
          "transactionHash": "0x3da91b191f3d4fa6175e85f2840550282b04d20e2e59f137e5ff798ddca29f9b",
          "transactionIndex": "0x2",
          "logIndex": "0x7",
          "removed": false
        }
      ],
      "logsBloom": "0x00000000000020000000000000000000400000000400000000801000000000000000000000000000000000000000000000000000000000000000000000000000000000000000000000000400000002000001000000000000000000000000000000000000020000000008000000000800000000000000000000000000000000400000000000000000000800000000000000000000000880000000000000000000000000000040000000000000000000000008000000000000000000000000000000000020000000000000000000000000000000000004000000000000000020000000000000000000000000000000000000000000000000000000000000000000",
      "type": "0x2",
      "transactionHash": "0x3da91b191f3d4fa6175e85f2840550282b04d20e2e59f137e5ff798ddca29f9b",
      "transactionIndex": "0x2",
      "blockHash": "0xe94c80c09d60f185d58710ce4e97ad523366e47855ee685d8e0c23bb6c309543",
      "blockNumber": "0xf7f8d29",
      "gasUsed": "0x86375",
      "effectiveGasPrice": "0x989680",
      "from": "0xf885390b75035e94ac72aef3e0d0ed5ec3b85d37",
      "to": null,
      "contractAddress": "0xf9a6f4a7d4be3753ddd97f2635e80c8d854d787f",
      "gasUsedForL1": "0x4efd4",
      "l1BlockNumber": "0x13eb373"
    },
    {
      "status": "0x1",
      "cumulativeGasUsed": "0x1135ea",
      "logs": [
        {
          "address": "0x9a1b3ba6df9b0fa4013f9d03d3c653a886368117",
          "topics": [
            "0xbc7cd75a20ee27fd9adebab32041f755214dbc6bffa90cc0225b39da2e5c2d3b",
            "0x000000000000000000000000c38c819a9e681dccfba36e2612d4dbfbd4f55924"
          ],
          "data": "0x",
          "blockHash": "0x522965333e5cc5a4eeed0bbb5a4243d2b448c214babf85499bbe12f78fd3890c",
          "blockNumber": "0xf7f8d30",
          "transactionHash": "0x0691ae1aeb70d495bd9a8769bc93ca5d2fe32bb172252888a98e99256ad1b74c",
          "transactionIndex": "0x3",
          "logIndex": "0x5",
          "removed": false
        },
        {
          "address": "0x9a1b3ba6df9b0fa4013f9d03d3c653a886368117",
          "topics": [
            "0x8be0079c531659141344cd1fd0a4f28419497f9722a3daafe3b4186f6b6457e0",
            "0x0000000000000000000000000000000000000000000000000000000000000000",
            "0x000000000000000000000000f885390b75035e94ac72aef3e0d0ed5ec3b85d37"
          ],
          "data": "0x",
          "blockHash": "0x522965333e5cc5a4eeed0bbb5a4243d2b448c214babf85499bbe12f78fd3890c",
          "blockNumber": "0xf7f8d30",
          "transactionHash": "0x0691ae1aeb70d495bd9a8769bc93ca5d2fe32bb172252888a98e99256ad1b74c",
          "transactionIndex": "0x3",
          "logIndex": "0x6",
          "removed": false
        },
        {
          "address": "0x9a1b3ba6df9b0fa4013f9d03d3c653a886368117",
          "topics": [
            "0xc7f505b2f371ae2175ee4913f4499e1f2633a7b5936321eed1cdaeb6115181d2"
          ],
          "data": "0x0000000000000000000000000000000000000000000000000000000000000001",
          "blockHash": "0x522965333e5cc5a4eeed0bbb5a4243d2b448c214babf85499bbe12f78fd3890c",
          "blockNumber": "0xf7f8d30",
          "transactionHash": "0x0691ae1aeb70d495bd9a8769bc93ca5d2fe32bb172252888a98e99256ad1b74c",
          "transactionIndex": "0x3",
          "logIndex": "0x7",
          "removed": false
        }
      ],
      "logsBloom": "0x00000000000020000000000000000000400000000400000000801000000000000000000000000000000000000000000000000000000000000000000000000000000000000000000000000400000002000001000000000000000000000000000200000000020000000008000000000800000000000000000000000000000100400000000000000000000800000000000000000000000080000000000000000000000000000000000000000000000000000000000000000000000000000000000000000020000000000000000000000000000000000004000000000000000020000000000000000000000000000000000000000000000000800000000000000000",
      "type": "0x2",
      "transactionHash": "0x0691ae1aeb70d495bd9a8769bc93ca5d2fe32bb172252888a98e99256ad1b74c",
      "transactionIndex": "0x3",
      "blockHash": "0x522965333e5cc5a4eeed0bbb5a4243d2b448c214babf85499bbe12f78fd3890c",
      "blockNumber": "0xf7f8d30",
      "gasUsed": "0x85d9f",
      "effectiveGasPrice": "0x989680",
      "from": "0xf885390b75035e94ac72aef3e0d0ed5ec3b85d37",
      "to": null,
      "contractAddress": "0x9a1b3ba6df9b0fa4013f9d03d3c653a886368117",
      "gasUsedForL1": "0x4e9fe",
      "l1BlockNumber": "0x13eb373"
    },
    {
      "status": "0x1",
      "cumulativeGasUsed": "0xd858b",
      "logs": [
        {
          "address": "0x016a72af7da51fcd32ca0762fc531fc6f5344fda",
          "topics": [
            "0xbc7cd75a20ee27fd9adebab32041f755214dbc6bffa90cc0225b39da2e5c2d3b",
            "0x000000000000000000000000c38c819a9e681dccfba36e2612d4dbfbd4f55924"
          ],
          "data": "0x",
          "blockHash": "0xa6f0bc08d2d0d1662e61f6fd4ed7b6cfd933ed9633b308e186780a0161bbffd8",
          "blockNumber": "0xf7f8d35",
          "transactionHash": "0x52d48c3b06ba3a9975ffca402f2053e9fce77be442523b459fa1bc48e123a653",
          "transactionIndex": "0x2",
          "logIndex": "0x2",
          "removed": false
        },
        {
          "address": "0x016a72af7da51fcd32ca0762fc531fc6f5344fda",
          "topics": [
            "0x8be0079c531659141344cd1fd0a4f28419497f9722a3daafe3b4186f6b6457e0",
            "0x0000000000000000000000000000000000000000000000000000000000000000",
            "0x000000000000000000000000f885390b75035e94ac72aef3e0d0ed5ec3b85d37"
          ],
          "data": "0x",
          "blockHash": "0xa6f0bc08d2d0d1662e61f6fd4ed7b6cfd933ed9633b308e186780a0161bbffd8",
          "blockNumber": "0xf7f8d35",
          "transactionHash": "0x52d48c3b06ba3a9975ffca402f2053e9fce77be442523b459fa1bc48e123a653",
          "transactionIndex": "0x2",
          "logIndex": "0x3",
          "removed": false
        },
        {
          "address": "0x016a72af7da51fcd32ca0762fc531fc6f5344fda",
          "topics": [
            "0xc7f505b2f371ae2175ee4913f4499e1f2633a7b5936321eed1cdaeb6115181d2"
          ],
          "data": "0x0000000000000000000000000000000000000000000000000000000000000001",
          "blockHash": "0xa6f0bc08d2d0d1662e61f6fd4ed7b6cfd933ed9633b308e186780a0161bbffd8",
          "blockNumber": "0xf7f8d35",
          "transactionHash": "0x52d48c3b06ba3a9975ffca402f2053e9fce77be442523b459fa1bc48e123a653",
          "transactionIndex": "0x2",
          "logIndex": "0x4",
          "removed": false
        }
      ],
      "logsBloom": "0x00000000000020000000000000000001400000000400000000801000000000000000000000000000000000000000000000000000000000000000000000000000000000000000000000000400000002000001000000000000000000000000000000000000020000000008000000000800000000000000000000000000000000400000000000000000000800000000000000000000000080000000000000000000000000000000000000000000000000000100000000002000000000000000000000000020000000000000000000000000000000000004000000000000000020000000000000000000000000000000000000000000000000000000000000000000",
      "type": "0x2",
      "transactionHash": "0x52d48c3b06ba3a9975ffca402f2053e9fce77be442523b459fa1bc48e123a653",
      "transactionIndex": "0x2",
      "blockHash": "0xa6f0bc08d2d0d1662e61f6fd4ed7b6cfd933ed9633b308e186780a0161bbffd8",
      "blockNumber": "0xf7f8d35",
      "gasUsed": "0x85ff4",
      "effectiveGasPrice": "0x989680",
      "from": "0xf885390b75035e94ac72aef3e0d0ed5ec3b85d37",
      "to": null,
      "contractAddress": "0x016a72af7da51fcd32ca0762fc531fc6f5344fda",
      "gasUsedForL1": "0x4ec53",
      "l1BlockNumber": "0x13eb373"
    },
    {
      "status": "0x1",
      "cumulativeGasUsed": "0xf460a",
      "logs": [
        {
          "address": "0x54162a470a51504e9d60d8aca1b8401a3d79be3c",
          "topics": [
            "0xbc7cd75a20ee27fd9adebab32041f755214dbc6bffa90cc0225b39da2e5c2d3b",
            "0x000000000000000000000000c38c819a9e681dccfba36e2612d4dbfbd4f55924"
          ],
          "data": "0x",
          "blockHash": "0xd8d8ad2ce2c670798e3efb93b89d1c1bf461ccac839020dbe6a957a7bfbafb51",
          "blockNumber": "0xf7f8d3c",
          "transactionHash": "0x8646607364e430b319fca0dbcdf88c142b94c6bf8bdb81f26de632cb28df2069",
          "transactionIndex": "0x3",
          "logIndex": "0x3",
          "removed": false
        },
        {
          "address": "0x54162a470a51504e9d60d8aca1b8401a3d79be3c",
          "topics": [
            "0x8be0079c531659141344cd1fd0a4f28419497f9722a3daafe3b4186f6b6457e0",
            "0x0000000000000000000000000000000000000000000000000000000000000000",
            "0x000000000000000000000000f885390b75035e94ac72aef3e0d0ed5ec3b85d37"
          ],
          "data": "0x",
          "blockHash": "0xd8d8ad2ce2c670798e3efb93b89d1c1bf461ccac839020dbe6a957a7bfbafb51",
          "blockNumber": "0xf7f8d3c",
          "transactionHash": "0x8646607364e430b319fca0dbcdf88c142b94c6bf8bdb81f26de632cb28df2069",
          "transactionIndex": "0x3",
          "logIndex": "0x4",
          "removed": false
        },
        {
          "address": "0x54162a470a51504e9d60d8aca1b8401a3d79be3c",
          "topics": [
            "0xc7f505b2f371ae2175ee4913f4499e1f2633a7b5936321eed1cdaeb6115181d2"
          ],
          "data": "0x0000000000000000000000000000000000000000000000000000000000000001",
          "blockHash": "0xd8d8ad2ce2c670798e3efb93b89d1c1bf461ccac839020dbe6a957a7bfbafb51",
          "blockNumber": "0xf7f8d3c",
          "transactionHash": "0x8646607364e430b319fca0dbcdf88c142b94c6bf8bdb81f26de632cb28df2069",
          "transactionIndex": "0x3",
          "logIndex": "0x5",
          "removed": false
        }
      ],
      "logsBloom": "0x00000000000020000000000000000000400000000400000000801000000000000000000000000000080000000000000000000000000000000000000000000000000000000000000000000400000002000001000000000000000000000000000000000000020000000008000000000800000000000000000000000000000000400000000000000000000820000000000000000000800080000000000000000000000000000000000000000000000000000000000000000000000000000000000000000020000000000000000000000000000000000004000000000000000020000000000000000000000000000000000000000000000000000000000000000000",
      "type": "0x2",
      "transactionHash": "0x8646607364e430b319fca0dbcdf88c142b94c6bf8bdb81f26de632cb28df2069",
      "transactionIndex": "0x3",
      "blockHash": "0xd8d8ad2ce2c670798e3efb93b89d1c1bf461ccac839020dbe6a957a7bfbafb51",
      "blockNumber": "0xf7f8d3c",
      "gasUsed": "0x85c74",
      "effectiveGasPrice": "0x989680",
      "from": "0xf885390b75035e94ac72aef3e0d0ed5ec3b85d37",
      "to": null,
      "contractAddress": "0x54162a470a51504e9d60d8aca1b8401a3d79be3c",
      "gasUsedForL1": "0x4e8d3",
      "l1BlockNumber": "0x13eb373"
    },
    {
      "status": "0x1",
      "cumulativeGasUsed": "0x4c54a0",
      "logs": [],
      "logsBloom": "0x00000000000000000000000000000000000000000000000000000000000000000000000000000000000000000000000000000000000000000000000000000000000000000000000000000000000000000000000000000000000000000000000000000000000000000000000000000000000000000000000000000000000000000000000000000000000000000000000000000000000000000000000000000000000000000000000000000000000000000000000000000000000000000000000000000000000000000000000000000000000000000000000000000000000000000000000000000000000000000000000000000000000000000000000000000000",
      "type": "0x2",
      "transactionHash": "0x4d52be94b7a1835f981d60bb65c3afdc7b430927a58897a74fe806db3d4daa6c",
      "transactionIndex": "0x6",
      "blockHash": "0x5003990d13e33774527269c9bb4e323e6bb66713a47134b7d31e7d1de0dff43d",
      "blockNumber": "0xf7f8d42",
      "gasUsed": "0x1a3f1",
      "effectiveGasPrice": "0x989680",
      "from": "0xf885390b75035e94ac72aef3e0d0ed5ec3b85d37",
      "to": "0x054ccfa2fc555c3c275f091ad86b992da0206858",
      "contractAddress": null,
      "gasUsedForL1": "0xacb6",
      "l1BlockNumber": "0x13eb373"
    },
    {
      "status": "0x1",
      "cumulativeGasUsed": "0xab740",
      "logs": [
        {
          "address": "0x054ccfa2fc555c3c275f091ad86b992da0206858",
          "topics": [
            "0xd4543705df0cd4b2db9c16ec48c6c3fb20ce223e79f003406021ecbac3bc9ce6"
          ],
          "data": "0x000000000000000000000000000000000000000000000000000000000000a4b10000000000000000000000000000000000000000000000b02ecf74c3138800000000000000000000000000000000000000000000000000000000000000000001000000000000000000000000b67d5a782f87526c3780f80546ad19a25933fa6d",
          "blockHash": "0xf0fe8073c476aa818490a3c57fac609194e1ff51909c552fa5bd36b9dc5bace9",
          "blockNumber": "0xf7f8d48",
          "transactionHash": "0xbefb57d2229478bec4aa2cfb4ec5cf9ec4337d8683c0ed2a6ff65dd7c9c215c5",
          "transactionIndex": "0x3",
          "logIndex": "0x5",
          "removed": false
        }
      ],
      "logsBloom": "0x00000000040000000000000000000000000000000000020000000000000000000000000000000000000000000000000020000000000000000000000000000000080000000000000000000004000000000000000000000000000000000000000000000000000000000000000000000000000000000000000000000000000000000000000000000000000002000000000000000000000000000000000000000000000000000000000000000000000000000000000000000000000000000000000000000000000000000000000000000000000000000000000000000000000000000000000000000000000000000000000000000000000000000000000000000000",
      "type": "0x2",
      "transactionHash": "0xbefb57d2229478bec4aa2cfb4ec5cf9ec4337d8683c0ed2a6ff65dd7c9c215c5",
      "transactionIndex": "0x3",
      "blockHash": "0xf0fe8073c476aa818490a3c57fac609194e1ff51909c552fa5bd36b9dc5bace9",
      "blockNumber": "0xf7f8d48",
      "gasUsed": "0x38628",
      "effectiveGasPrice": "0x989680",
      "from": "0xf885390b75035e94ac72aef3e0d0ed5ec3b85d37",
      "to": "0x054ccfa2fc555c3c275f091ad86b992da0206858",
      "contractAddress": null,
      "gasUsedForL1": "0x11de8",
      "l1BlockNumber": "0x13eb373"
    },
    {
      "status": "0x1",
      "cumulativeGasUsed": "0x17bf55",
      "logs": [
        {
          "address": "0x054ccfa2fc555c3c275f091ad86b992da0206858",
          "topics": [
            "0xd4543705df0cd4b2db9c16ec48c6c3fb20ce223e79f003406021ecbac3bc9ce6"
          ],
          "data": "0x000000000000000000000000000000000000000000000000000000000000a4b10000000000000000000000000000000000000000000000b02ecf74c3138800000000000000000000000000000000000000000000000000000000000000000001000000000000000000000000f9a6f4a7d4be3753ddd97f2635e80c8d854d787f",
          "blockHash": "0x11c994195a3d42bd253b9f6ff1cabf1c1261d30cc03bc57d7acab8ecbe0ba1e8",
          "blockNumber": "0xf7f8d4e",
          "transactionHash": "0xd55ecf667039cf9ecb9522c2ebc3ec99ffc648ba7c8e9aa6dcaeb4ca11d78c0a",
          "transactionIndex": "0x4",
          "logIndex": "0x15",
          "removed": false
        }
      ],
      "logsBloom": "0x00000000040000000000000000000000000000000000020000000000000000000000000000000000000000000000000020000000000000000000000000000000080000000000000000000004000000000000000000000000000000000000000000000000000000000000000000000000000000000000000000000000000000000000000000000000000002000000000000000000000000000000000000000000000000000000000000000000000000000000000000000000000000000000000000000000000000000000000000000000000000000000000000000000000000000000000000000000000000000000000000000000000000000000000000000000",
      "type": "0x2",
      "transactionHash": "0xd55ecf667039cf9ecb9522c2ebc3ec99ffc648ba7c8e9aa6dcaeb4ca11d78c0a",
      "transactionIndex": "0x4",
      "blockHash": "0x11c994195a3d42bd253b9f6ff1cabf1c1261d30cc03bc57d7acab8ecbe0ba1e8",
      "blockNumber": "0xf7f8d4e",
      "gasUsed": "0x30090",
      "effectiveGasPrice": "0x989680",
      "from": "0xf885390b75035e94ac72aef3e0d0ed5ec3b85d37",
      "to": "0x054ccfa2fc555c3c275f091ad86b992da0206858",
      "contractAddress": null,
      "gasUsedForL1": "0x11de8",
      "l1BlockNumber": "0x13eb373"
    },
    {
      "status": "0x1",
      "cumulativeGasUsed": "0xd6492",
      "logs": [
        {
          "address": "0x054ccfa2fc555c3c275f091ad86b992da0206858",
          "topics": [
            "0xd4543705df0cd4b2db9c16ec48c6c3fb20ce223e79f003406021ecbac3bc9ce6"
          ],
          "data": "0x000000000000000000000000000000000000000000000000000000000000a4b10000000000000000000000000000000000000000000000b02ecf74c31388000000000000000000000000000000000000000000000000000000000000000000010000000000000000000000009a1b3ba6df9b0fa4013f9d03d3c653a886368117",
          "blockHash": "0x60ab5d07acf6ffc907f9950396ba8b16a7d899c3e0bd87694e6edbcccd055fe4",
          "blockNumber": "0xf7f8d53",
          "transactionHash": "0xdf78cec9476bbbec76926f937b0504b5ded27d9bddbcc63caaa0cd9574e79e1d",
          "transactionIndex": "0x5",
          "logIndex": "0x4",
          "removed": false
        }
      ],
      "logsBloom": "0x00000000040000000000000000000000000000000000020000000000000000000000000000000000000000000000000020000000000000000000000000000000080000000000000000000004000000000000000000000000000000000000000000000000000000000000000000000000000000000000000000000000000000000000000000000000000002000000000000000000000000000000000000000000000000000000000000000000000000000000000000000000000000000000000000000000000000000000000000000000000000000000000000000000000000000000000000000000000000000000000000000000000000000000000000000000",
      "type": "0x2",
      "transactionHash": "0xdf78cec9476bbbec76926f937b0504b5ded27d9bddbcc63caaa0cd9574e79e1d",
      "transactionIndex": "0x5",
      "blockHash": "0x60ab5d07acf6ffc907f9950396ba8b16a7d899c3e0bd87694e6edbcccd055fe4",
      "blockNumber": "0xf7f8d53",
      "gasUsed": "0x30090",
      "effectiveGasPrice": "0x989680",
      "from": "0xf885390b75035e94ac72aef3e0d0ed5ec3b85d37",
      "to": "0x054ccfa2fc555c3c275f091ad86b992da0206858",
      "contractAddress": null,
      "gasUsedForL1": "0x11de8",
      "l1BlockNumber": "0x13eb374"
    },
    {
      "status": "0x1",
      "cumulativeGasUsed": "0xe264d",
      "logs": [
        {
          "address": "0x054ccfa2fc555c3c275f091ad86b992da0206858",
          "topics": [
            "0xd4543705df0cd4b2db9c16ec48c6c3fb20ce223e79f003406021ecbac3bc9ce6"
          ],
          "data": "0x000000000000000000000000000000000000000000000000000000000000a4b10000000000000000000000000000000000000000000000b02ecf74c3138800000000000000000000000000000000000000000000000000000000000000000001000000000000000000000000016a72af7da51fcd32ca0762fc531fc6f5344fda",
          "blockHash": "0x43fc8b7c0dd7d79ff3cdd9615d6cef8c72d01a99b6f01b4e1400f065e759bf73",
          "blockNumber": "0xf7f8d58",
          "transactionHash": "0xf8f74bd754723aab3320dd7d8ea4d0fe359ac2b10d2e4834bbabf321b6aa8264",
          "transactionIndex": "0x4",
          "logIndex": "0x4",
          "removed": false
        }
      ],
      "logsBloom": "0x00000000040000000000000000000000000000000000020000000000000000000000000000000000000000000000000020000000000000000000000000000000080000000000000000000004000000000000000000000000000000000000000000000000000000000000000000000000000000000000000000000000000000000000000000000000000002000000000000000000000000000000000000000000000000000000000000000000000000000000000000000000000000000000000000000000000000000000000000000000000000000000000000000000000000000000000000000000000000000000000000000000000000000000000000000000",
      "type": "0x2",
      "transactionHash": "0xf8f74bd754723aab3320dd7d8ea4d0fe359ac2b10d2e4834bbabf321b6aa8264",
      "transactionIndex": "0x4",
      "blockHash": "0x43fc8b7c0dd7d79ff3cdd9615d6cef8c72d01a99b6f01b4e1400f065e759bf73",
      "blockNumber": "0xf7f8d58",
      "gasUsed": "0x30090",
      "effectiveGasPrice": "0x989680",
      "from": "0xf885390b75035e94ac72aef3e0d0ed5ec3b85d37",
      "to": "0x054ccfa2fc555c3c275f091ad86b992da0206858",
      "contractAddress": null,
      "gasUsedForL1": "0x11de8",
      "l1BlockNumber": "0x13eb374"
    },
    {
      "status": "0x1",
      "cumulativeGasUsed": "0x380e2c",
      "logs": [
        {
          "address": "0x054ccfa2fc555c3c275f091ad86b992da0206858",
          "topics": [
            "0xd4543705df0cd4b2db9c16ec48c6c3fb20ce223e79f003406021ecbac3bc9ce6"
          ],
          "data": "0x000000000000000000000000000000000000000000000000000000000000a4b100000000000000000000000000000000000000000000006c6b935b8bbd40000000000000000000000000000000000000000000000000000000000000000000010000000000000000000000009a1b3ba6df9b0fa4013f9d03d3c653a886368117",
          "blockHash": "0x4677dc6b0eb4de60eb75b9a17b8ff6d4d6abff3b99fa66d28b3139720b6a8f03",
          "blockNumber": "0xf7f8d5d",
          "transactionHash": "0x6c2e6d01f90a70a24e898c1aba5f3f9e5afaa8d82181a79131569a69bd5a9849",
          "transactionIndex": "0xf",
          "logIndex": "0x1a",
          "removed": false
        }
      ],
      "logsBloom": "0x00000000040000000000000000000000000000000000020000000000000000000000000000000000000000000000000020000000000000000000000000000000080000000000000000000004000000000000000000000000000000000000000000000000000000000000000000000000000000000000000000000000000000000000000000000000000002000000000000000000000000000000000000000000000000000000000000000000000000000000000000000000000000000000000000000000000000000000000000000000000000000000000000000000000000000000000000000000000000000000000000000000000000000000000000000000",
      "type": "0x2",
      "transactionHash": "0x6c2e6d01f90a70a24e898c1aba5f3f9e5afaa8d82181a79131569a69bd5a9849",
      "transactionIndex": "0xf",
      "blockHash": "0x4677dc6b0eb4de60eb75b9a17b8ff6d4d6abff3b99fa66d28b3139720b6a8f03",
      "blockNumber": "0xf7f8d5d",
      "gasUsed": "0x2224c",
      "effectiveGasPrice": "0x989680",
      "from": "0xf885390b75035e94ac72aef3e0d0ed5ec3b85d37",
      "to": "0x054ccfa2fc555c3c275f091ad86b992da0206858",
      "contractAddress": null,
      "gasUsedForL1": "0x11de8",
      "l1BlockNumber": "0x13eb374"
    }
  ],
  "libraries": [],
  "pending": [],
  "returns": {},
  "timestamp": 1727975464,
  "chain": 42161,
  "commit": "6d810c9"
}