{
  "transactions": [
    {
      "hash": "0x44d7001d42348cdf576e0f39d57c4ea30004889c81ecf3d87ed436f8e289a673",
      "transactionType": "CREATE",
      "contractName": "GaugeType1",
      "contractAddress": "0x0df9fb36ce258a7d445944208527e60b001d95e1",
      "function": null,
      "arguments": null,
      "transaction": {
        "from": "0xf885390b75035e94ac72aef3e0d0ed5ec3b85d37",
        "gas": "0x557af0",
        "value": "0x0",
        "input": "0x60a06040523060805234801561001457600080fd5b5061001d610022565b6100d4565b7ff0c57e16840df040f15088dc2f81fe391c3923bec73e23a9662efc9c229c6a00805468010000000000000000900460ff16156100725760405163f92ee8a960e01b815260040160405180910390fd5b80546001600160401b03908116146100d15780546001600160401b0319166001600160401b0390811782556040519081527fc7f505b2f371ae2175ee4913f4499e1f2633a7b5936321eed1cdaeb6115181d29060200160405180910390a15b50565b608051610edf6100fd600039600081816107030152818161072c015261086d0152610edf6000f3fe6080604052600436106100a75760003560e01c8063715018a611610064578063715018a61461017d5780638da5cb5b1461019257806399eecb3b146101cf578063ad3cb1cc146101ef578063c0c53b8b1461022d578063f2fde38b1461024d57600080fd5b8063329eb839146100ac5780634611ed37146100c35780634c55b7de146100ef5780634d0392a8146101275780634f1ef2861461014757806352d1902d1461015a575b600080fd5b3480156100b857600080fd5b506100c161026d565b005b3480156100cf57600080fd5b506100d8600181565b60405160ff90911681526020015b60405180910390f35b3480156100fb57600080fd5b5060015461010f906001600160a01b031681565b6040516001600160a01b0390911681526020016100e6565b34801561013357600080fd5b506100c1610142366004610c70565b6102fc565b6100c1610155366004610cbb565b610470565b34801561016657600080fd5b5061016f61048f565b6040519081526020016100e6565b34801561018957600080fd5b506100c16104ac565b34801561019e57600080fd5b507f9016d09d72d40fdae2fd8ceac6b6234c7706214fd39c1cd1e609a0528c199300546001600160a01b031661010f565b3480156101db57600080fd5b5060005461010f906001600160a01b031681565b3480156101fb57600080fd5b50610220604051806040016040528060058152602001640352e302e360dc1b81525081565b6040516100e69190610da1565b34801561023957600080fd5b506100c1610248366004610dd4565b6104be565b34801561025957600080fd5b506100c1610268366004610e17565b610608565b61027561064b565b6001546040516370a0823160e01b81523060048201526102fa9133916001600160a01b03909116906370a0823190602401602060405180830381865afa1580156102c3573d6000803e3d6000fd5b505050506040513d601f19601f820116820180604052508101906102e79190610e32565b6001546001600160a01b031691906106a6565b565b61030461064b565b60006040518060600160405280838152602001463060405160200161033c9291909182526001600160a01b0316602082015260400190565b60408051808303601f190181529181528151602092830120835230928201929092526000548251636fb7c12960e01b815284516004820152918401516024830152918301516001600160a01b039081166044830152929350911690636fb7c129906064016020604051808303816000875af11580156103bf573d6000803e3d6000fd5b505050506040513d601f19601f820116820180604052508101906103e39190610e32565b506001546040516370a0823160e01b81523060048201526000916001600160a01b0316906370a0823190602401602060405180830381865afa15801561042d573d6000803e3d6000fd5b505050506040513d601f19601f820116820180604052508101906104519190610e32565b60015490915061046b906001600160a01b031633836106a6565b505050565b6104786106f8565b6104818261079d565b61048b82826107a5565b5050565b6000610499610862565b50600080516020610e8a83398151915290565b6104b461064b565b6102fa60006108ab565b7ff0c57e16840df040f15088dc2f81fe391c3923bec73e23a9662efc9c229c6a008054600160401b810460ff16159067ffffffffffffffff166000811580156105045750825b905060008267ffffffffffffffff1660011480156105215750303b155b90508115801561052f575080155b1561054d5760405163f92ee8a960e01b815260040160405180910390fd5b845467ffffffffffffffff19166001178555831561057757845460ff60401b1916600160401b1785555b600080546001600160a01b03808a166001600160a01b03199283161790925560018054928916929091169190911790556105b08861091c565b6105b861092d565b83156105fe57845460ff60401b19168555604051600181527fc7f505b2f371ae2175ee4913f4499e1f2633a7b5936321eed1cdaeb6115181d29060200160405180910390a15b5050505050505050565b61061061064b565b6001600160a01b03811661063f57604051631e4fbdf760e01b8152600060048201526024015b60405180910390fd5b610648816108ab565b50565b3361067d7f9016d09d72d40fdae2fd8ceac6b6234c7706214fd39c1cd1e609a0528c199300546001600160a01b031690565b6001600160a01b0316146102fa5760405163118cdaa760e01b8152336004820152602401610636565b604080516001600160a01b038416602482015260448082018490528251808303909101815260649091019091526020810180516001600160e01b031663a9059cbb60e01b17905261046b908490610935565b306001600160a01b037f000000000000000000000000000000000000000000000000000000000000000016148061077f57507f00000000000000000000000000000000000000000000000000000000000000006001600160a01b0316610773600080516020610e8a833981519152546001600160a01b031690565b6001600160a01b031614155b156102fa5760405163703e46dd60e11b815260040160405180910390fd5b61064861064b565b816001600160a01b03166352d1902d6040518163ffffffff1660e01b8152600401602060405180830381865afa9250505080156107ff575060408051601f3d908101601f191682019092526107fc91810190610e32565b60015b61082757604051634c9c8ce360e01b81526001600160a01b0383166004820152602401610636565b600080516020610e8a833981519152811461085857604051632a87526960e21b815260048101829052602401610636565b61046b8383610998565b306001600160a01b037f000000000000000000000000000000000000000000000000000000000000000016146102fa5760405163703e46dd60e11b815260040160405180910390fd5b7f9016d09d72d40fdae2fd8ceac6b6234c7706214fd39c1cd1e609a0528c19930080546001600160a01b031981166001600160a01b03848116918217845560405192169182907f8be0079c531659141344cd1fd0a4f28419497f9722a3daafe3b4186f6b6457e090600090a3505050565b6109246109ee565b61064881610a37565b6102fa6109ee565b600061094a6001600160a01b03841683610a3f565b9050805160001415801561096f57508080602001905181019061096d9190610e4b565b155b1561046b57604051635274afe760e01b81526001600160a01b0384166004820152602401610636565b6109a182610a54565b6040516001600160a01b038316907fbc7cd75a20ee27fd9adebab32041f755214dbc6bffa90cc0225b39da2e5c2d3b90600090a28051156109e65761046b8282610ab9565b61048b610b2f565b7ff0c57e16840df040f15088dc2f81fe391c3923bec73e23a9662efc9c229c6a0054600160401b900460ff166102fa57604051631afcd79f60e31b815260040160405180910390fd5b6106106109ee565b6060610a4d83836000610b4e565b9392505050565b806001600160a01b03163b600003610a8a57604051634c9c8ce360e01b81526001600160a01b0382166004820152602401610636565b600080516020610e8a83398151915280546001600160a01b0319166001600160a01b0392909216919091179055565b6060600080846001600160a01b031684604051610ad69190610e6d565b600060405180830381855af49150503d8060008114610b11576040519150601f19603f3d011682016040523d82523d6000602084013e610b16565b606091505b5091509150610b26858383610beb565b95945050505050565b34156102fa5760405163b398979f60e01b815260040160405180910390fd5b606081471015610b735760405163cd78605960e01b8152306004820152602401610636565b600080856001600160a01b03168486604051610b8f9190610e6d565b60006040518083038185875af1925050503d8060008114610bcc576040519150601f19603f3d011682016040523d82523d6000602084013e610bd1565b606091505b5091509150610be1868383610beb565b9695505050505050565b606082610c0057610bfb82610c47565b610a4d565b8151158015610c1757506001600160a01b0384163b155b15610c4057604051639996b31560e01b81526001600160a01b0385166004820152602401610636565b5080610a4d565b805115610c575780518082602001fd5b604051630a12f52160e11b815260040160405180910390fd5b600060208284031215610c8257600080fd5b5035919050565b80356001600160a01b0381168114610ca057600080fd5b919050565b634e487b7160e01b600052604160045260246000fd5b60008060408385031215610cce57600080fd5b610cd783610c89565b9150602083013567ffffffffffffffff80821115610cf457600080fd5b818501915085601f830112610d0857600080fd5b813581811115610d1a57610d1a610ca5565b604051601f8201601f19908116603f01168101908382118183101715610d4257610d42610ca5565b81604052828152886020848701011115610d5b57600080fd5b8260208601602083013760006020848301015280955050505050509250929050565b60005b83811015610d98578181015183820152602001610d80565b50506000910152565b6020815260008251806020840152610dc0816040850160208701610d7d565b601f01601f19169190910160400192915050565b600080600060608486031215610de957600080fd5b610df284610c89565b9250610e0060208501610c89565b9150610e0e60408501610c89565b90509250925092565b600060208284031215610e2957600080fd5b610a4d82610c89565b600060208284031215610e4457600080fd5b5051919050565b600060208284031215610e5d57600080fd5b81518015158114610a4d57600080fd5b60008251610e7f818460208701610d7d565b919091019291505056fe360894a13ba1a3210667c828492db98dca3e2076cc3735a920a3ca505d382bbca2646970667358221220c87a96e789f3e8fef29d4d1f246088d6ee700bdae555f14e1c5bc23a43ffcd1864736f6c63430008170033",
        "nonce": "0x58",
        "chainId": "0xa4b1"
      },
      "additionalContracts": [],
      "isFixedGasLimit": false
    },
    {
      "hash": "0xe9d1cd1373a07d6ad46552ea9fe6ae37fc47d7b4826d92206c6bd1acd1153ed4",
      "transactionType": "CREATE",
      "contractName": "ERC1967Proxy",
      "contractAddress": "0xc16f3f88bd88cd28fb95df9628866149b1561528",
      "function": null,
      "arguments": [
        "0x0DF9fb36ce258a7D445944208527E60B001d95E1",
        "0xc0c53b8b000000000000000000000000f885390b75035e94ac72aef3e0d0ed5ec3b85d37000000000000000000000000fdf1b2c4e291b17f8e998e89cf28985faf3ce6a1000000000000000000000000acc51ffdef63fb0c014c882267c3a17261a5ed50"
      ],
      "transaction": {
        "from": "0xf885390b75035e94ac72aef3e0d0ed5ec3b85d37",
        "gas": "0x47c40",
        "value": "0x0",
        "input": "0x608060405260405161040a38038061040a83398101604081905261002291610268565b61002c8282610033565b5050610352565b61003c82610092565b6040516001600160a01b038316907fbc7cd75a20ee27fd9adebab32041f755214dbc6bffa90cc0225b39da2e5c2d3b90600090a280511561008657610081828261010e565b505050565b61008e610185565b5050565b806001600160a01b03163b6000036100cd57604051634c9c8ce360e01b81526001600160a01b03821660048201526024015b60405180910390fd5b7f360894a13ba1a3210667c828492db98dca3e2076cc3735a920a3ca505d382bbc80546001600160a01b0319166001600160a01b0392909216919091179055565b6060600080846001600160a01b03168460405161012b9190610336565b600060405180830381855af49150503d8060008114610166576040519150601f19603f3d011682016040523d82523d6000602084013e61016b565b606091505b50909250905061017c8583836101a6565b95945050505050565b34156101a45760405163b398979f60e01b815260040160405180910390fd5b565b6060826101bb576101b682610205565b6101fe565b81511580156101d257506001600160a01b0384163b155b156101fb57604051639996b31560e01b81526001600160a01b03851660048201526024016100c4565b50805b9392505050565b8051156102155780518082602001fd5b604051630a12f52160e11b815260040160405180910390fd5b634e487b7160e01b600052604160045260246000fd5b60005b8381101561025f578181015183820152602001610247565b50506000910152565b6000806040838503121561027b57600080fd5b82516001600160a01b038116811461029257600080fd5b60208401519092506001600160401b03808211156102af57600080fd5b818501915085601f8301126102c357600080fd5b8151818111156102d5576102d561022e565b604051601f8201601f19908116603f011681019083821181831017156102fd576102fd61022e565b8160405282815288602084870101111561031657600080fd5b610327836020830160208801610244565b80955050505050509250929050565b60008251610348818460208701610244565b9190910192915050565b60aa806103606000396000f3fe6080604052600a600c565b005b60186014601a565b6051565b565b6000604c7f360894a13ba1a3210667c828492db98dca3e2076cc3735a920a3ca505d382bbc546001600160a01b031690565b905090565b3660008037600080366000845af43d6000803e808015606f573d6000f35b3d6000fdfea264697066735822122076efb2559dd012d0004d0e971ab9f300a5bcd6a5b160a4d8726f19682eb3e32864736f6c634300081700330000000000000000000000000df9fb36ce258a7d445944208527e60b001d95e100000000000000000000000000000000000000000000000000000000000000400000000000000000000000000000000000000000000000000000000000000064c0c53b8b000000000000000000000000f885390b75035e94ac72aef3e0d0ed5ec3b85d37000000000000000000000000fdf1b2c4e291b17f8e998e89cf28985faf3ce6a1000000000000000000000000acc51ffdef63fb0c014c882267c3a17261a5ed5000000000000000000000000000000000000000000000000000000000",
        "nonce": "0x59",
        "chainId": "0xa4b1"
      },
      "additionalContracts": [],
      "isFixedGasLimit": false
    },
    {
      "hash": "0x6539c796a16aae1a24af35f541a65ee8373d11d29a59cbccb31ba23de7fcad14",
      "transactionType": "CREATE",
      "contractName": "ERC1967Proxy",
      "contractAddress": "0x51d4d761346b8ce4667896825dce39e8c9849d06",
      "function": null,
      "arguments": [
        "0x0DF9fb36ce258a7D445944208527E60B001d95E1",
        "0xc0c53b8b000000000000000000000000f885390b75035e94ac72aef3e0d0ed5ec3b85d37000000000000000000000000fdf1b2c4e291b17f8e998e89cf28985faf3ce6a1000000000000000000000000acc51ffdef63fb0c014c882267c3a17261a5ed50"
      ],
      "transaction": {
        "from": "0xf885390b75035e94ac72aef3e0d0ed5ec3b85d37",
        "gas": "0x47c40",
        "value": "0x0",
        "input": "0x608060405260405161040a38038061040a83398101604081905261002291610268565b61002c8282610033565b5050610352565b61003c82610092565b6040516001600160a01b038316907fbc7cd75a20ee27fd9adebab32041f755214dbc6bffa90cc0225b39da2e5c2d3b90600090a280511561008657610081828261010e565b505050565b61008e610185565b5050565b806001600160a01b03163b6000036100cd57604051634c9c8ce360e01b81526001600160a01b03821660048201526024015b60405180910390fd5b7f360894a13ba1a3210667c828492db98dca3e2076cc3735a920a3ca505d382bbc80546001600160a01b0319166001600160a01b0392909216919091179055565b6060600080846001600160a01b03168460405161012b9190610336565b600060405180830381855af49150503d8060008114610166576040519150601f19603f3d011682016040523d82523d6000602084013e61016b565b606091505b50909250905061017c8583836101a6565b95945050505050565b34156101a45760405163b398979f60e01b815260040160405180910390fd5b565b6060826101bb576101b682610205565b6101fe565b81511580156101d257506001600160a01b0384163b155b156101fb57604051639996b31560e01b81526001600160a01b03851660048201526024016100c4565b50805b9392505050565b8051156102155780518082602001fd5b604051630a12f52160e11b815260040160405180910390fd5b634e487b7160e01b600052604160045260246000fd5b60005b8381101561025f578181015183820152602001610247565b50506000910152565b6000806040838503121561027b57600080fd5b82516001600160a01b038116811461029257600080fd5b60208401519092506001600160401b03808211156102af57600080fd5b818501915085601f8301126102c357600080fd5b8151818111156102d5576102d561022e565b604051601f8201601f19908116603f011681019083821181831017156102fd576102fd61022e565b8160405282815288602084870101111561031657600080fd5b610327836020830160208801610244565b80955050505050509250929050565b60008251610348818460208701610244565b9190910192915050565b60aa806103606000396000f3fe6080604052600a600c565b005b60186014601a565b6051565b565b6000604c7f360894a13ba1a3210667c828492db98dca3e2076cc3735a920a3ca505d382bbc546001600160a01b031690565b905090565b3660008037600080366000845af43d6000803e808015606f573d6000f35b3d6000fdfea264697066735822122076efb2559dd012d0004d0e971ab9f300a5bcd6a5b160a4d8726f19682eb3e32864736f6c634300081700330000000000000000000000000df9fb36ce258a7d445944208527e60b001d95e100000000000000000000000000000000000000000000000000000000000000400000000000000000000000000000000000000000000000000000000000000064c0c53b8b000000000000000000000000f885390b75035e94ac72aef3e0d0ed5ec3b85d37000000000000000000000000fdf1b2c4e291b17f8e998e89cf28985faf3ce6a1000000000000000000000000acc51ffdef63fb0c014c882267c3a17261a5ed5000000000000000000000000000000000000000000000000000000000",
        "nonce": "0x5a",
        "chainId": "0xa4b1"
      },
      "additionalContracts": [],
      "isFixedGasLimit": false
    },
    {
      "hash": "0x1ad1aece18755a55039af94b52ef1fb6b129658e61b61fbbd8448565035ccb8b",
      "transactionType": "CREATE",
      "contractName": "ERC1967Proxy",
      "contractAddress": "0x4927a62fefe180f9e6307ef5cb34f94fcad09227",
      "function": null,
      "arguments": [
        "0x0DF9fb36ce258a7D445944208527E60B001d95E1",
        "0xc0c53b8b000000000000000000000000f885390b75035e94ac72aef3e0d0ed5ec3b85d37000000000000000000000000fdf1b2c4e291b17f8e998e89cf28985faf3ce6a1000000000000000000000000acc51ffdef63fb0c014c882267c3a17261a5ed50"
      ],
      "transaction": {
        "from": "0xf885390b75035e94ac72aef3e0d0ed5ec3b85d37",
        "gas": "0x47c40",
        "value": "0x0",
        "input": "0x608060405260405161040a38038061040a83398101604081905261002291610268565b61002c8282610033565b5050610352565b61003c82610092565b6040516001600160a01b038316907fbc7cd75a20ee27fd9adebab32041f755214dbc6bffa90cc0225b39da2e5c2d3b90600090a280511561008657610081828261010e565b505050565b61008e610185565b5050565b806001600160a01b03163b6000036100cd57604051634c9c8ce360e01b81526001600160a01b03821660048201526024015b60405180910390fd5b7f360894a13ba1a3210667c828492db98dca3e2076cc3735a920a3ca505d382bbc80546001600160a01b0319166001600160a01b0392909216919091179055565b6060600080846001600160a01b03168460405161012b9190610336565b600060405180830381855af49150503d8060008114610166576040519150601f19603f3d011682016040523d82523d6000602084013e61016b565b606091505b50909250905061017c8583836101a6565b95945050505050565b34156101a45760405163b398979f60e01b815260040160405180910390fd5b565b6060826101bb576101b682610205565b6101fe565b81511580156101d257506001600160a01b0384163b155b156101fb57604051639996b31560e01b81526001600160a01b03851660048201526024016100c4565b50805b9392505050565b8051156102155780518082602001fd5b604051630a12f52160e11b815260040160405180910390fd5b634e487b7160e01b600052604160045260246000fd5b60005b8381101561025f578181015183820152602001610247565b50506000910152565b6000806040838503121561027b57600080fd5b82516001600160a01b038116811461029257600080fd5b60208401519092506001600160401b03808211156102af57600080fd5b818501915085601f8301126102c357600080fd5b8151818111156102d5576102d561022e565b604051601f8201601f19908116603f011681019083821181831017156102fd576102fd61022e565b8160405282815288602084870101111561031657600080fd5b610327836020830160208801610244565b80955050505050509250929050565b60008251610348818460208701610244565b9190910192915050565b60aa806103606000396000f3fe6080604052600a600c565b005b60186014601a565b6051565b565b6000604c7f360894a13ba1a3210667c828492db98dca3e2076cc3735a920a3ca505d382bbc546001600160a01b031690565b905090565b3660008037600080366000845af43d6000803e808015606f573d6000f35b3d6000fdfea264697066735822122076efb2559dd012d0004d0e971ab9f300a5bcd6a5b160a4d8726f19682eb3e32864736f6c634300081700330000000000000000000000000df9fb36ce258a7d445944208527e60b001d95e100000000000000000000000000000000000000000000000000000000000000400000000000000000000000000000000000000000000000000000000000000064c0c53b8b000000000000000000000000f885390b75035e94ac72aef3e0d0ed5ec3b85d37000000000000000000000000fdf1b2c4e291b17f8e998e89cf28985faf3ce6a1000000000000000000000000acc51ffdef63fb0c014c882267c3a17261a5ed5000000000000000000000000000000000000000000000000000000000",
        "nonce": "0x5b",
        "chainId": "0xa4b1"
      },
      "additionalContracts": [],
      "isFixedGasLimit": false
    },
    {
      "hash": "0x956967def71e90563c28178e31f6e2eea21822efbd9213a4c5b979c30f420b1c",
      "transactionType": "CREATE",
      "contractName": "ERC1967Proxy",
      "contractAddress": "0x97b1f6a13500de55b62b57b2d9e30ca9e9bab11b",
      "function": null,
      "arguments": [
        "0x0DF9fb36ce258a7D445944208527E60B001d95E1",
        "0xc0c53b8b000000000000000000000000f885390b75035e94ac72aef3e0d0ed5ec3b85d37000000000000000000000000fdf1b2c4e291b17f8e998e89cf28985faf3ce6a1000000000000000000000000acc51ffdef63fb0c014c882267c3a17261a5ed50"
      ],
      "transaction": {
        "from": "0xf885390b75035e94ac72aef3e0d0ed5ec3b85d37",
        "gas": "0x47c40",
        "value": "0x0",
        "input": "0x608060405260405161040a38038061040a83398101604081905261002291610268565b61002c8282610033565b5050610352565b61003c82610092565b6040516001600160a01b038316907fbc7cd75a20ee27fd9adebab32041f755214dbc6bffa90cc0225b39da2e5c2d3b90600090a280511561008657610081828261010e565b505050565b61008e610185565b5050565b806001600160a01b03163b6000036100cd57604051634c9c8ce360e01b81526001600160a01b03821660048201526024015b60405180910390fd5b7f360894a13ba1a3210667c828492db98dca3e2076cc3735a920a3ca505d382bbc80546001600160a01b0319166001600160a01b0392909216919091179055565b6060600080846001600160a01b03168460405161012b9190610336565b600060405180830381855af49150503d8060008114610166576040519150601f19603f3d011682016040523d82523d6000602084013e61016b565b606091505b50909250905061017c8583836101a6565b95945050505050565b34156101a45760405163b398979f60e01b815260040160405180910390fd5b565b6060826101bb576101b682610205565b6101fe565b81511580156101d257506001600160a01b0384163b155b156101fb57604051639996b31560e01b81526001600160a01b03851660048201526024016100c4565b50805b9392505050565b8051156102155780518082602001fd5b604051630a12f52160e11b815260040160405180910390fd5b634e487b7160e01b600052604160045260246000fd5b60005b8381101561025f578181015183820152602001610247565b50506000910152565b6000806040838503121561027b57600080fd5b82516001600160a01b038116811461029257600080fd5b60208401519092506001600160401b03808211156102af57600080fd5b818501915085601f8301126102c357600080fd5b8151818111156102d5576102d561022e565b604051601f8201601f19908116603f011681019083821181831017156102fd576102fd61022e565b8160405282815288602084870101111561031657600080fd5b610327836020830160208801610244565b80955050505050509250929050565b60008251610348818460208701610244565b9190910192915050565b60aa806103606000396000f3fe6080604052600a600c565b005b60186014601a565b6051565b565b6000604c7f360894a13ba1a3210667c828492db98dca3e2076cc3735a920a3ca505d382bbc546001600160a01b031690565b905090565b3660008037600080366000845af43d6000803e808015606f573d6000f35b3d6000fdfea264697066735822122076efb2559dd012d0004d0e971ab9f300a5bcd6a5b160a4d8726f19682eb3e32864736f6c634300081700330000000000000000000000000df9fb36ce258a7d445944208527e60b001d95e100000000000000000000000000000000000000000000000000000000000000400000000000000000000000000000000000000000000000000000000000000064c0c53b8b000000000000000000000000f885390b75035e94ac72aef3e0d0ed5ec3b85d37000000000000000000000000fdf1b2c4e291b17f8e998e89cf28985faf3ce6a1000000000000000000000000acc51ffdef63fb0c014c882267c3a17261a5ed5000000000000000000000000000000000000000000000000000000000",
        "nonce": "0x5c",
        "chainId": "0xa4b1"
      },
      "additionalContracts": [],
      "isFixedGasLimit": false
    },
    {
      "hash": "0x2d389a4e8edbf77912f5d4440226231d76aaff596fa7e5567b87347787ec897b",
      "transactionType": "CREATE",
      "contractName": "ERC1967Proxy",
      "contractAddress": "0x61e9b42f28cdf30173c591b2eb38023ed969d437",
      "function": null,
      "arguments": [
        "0x0DF9fb36ce258a7D445944208527E60B001d95E1",
        "0xc0c53b8b000000000000000000000000f885390b75035e94ac72aef3e0d0ed5ec3b85d37000000000000000000000000fdf1b2c4e291b17f8e998e89cf28985faf3ce6a1000000000000000000000000acc51ffdef63fb0c014c882267c3a17261a5ed50"
      ],
      "transaction": {
        "from": "0xf885390b75035e94ac72aef3e0d0ed5ec3b85d37",
        "gas": "0x47c40",
        "value": "0x0",
        "input": "0x608060405260405161040a38038061040a83398101604081905261002291610268565b61002c8282610033565b5050610352565b61003c82610092565b6040516001600160a01b038316907fbc7cd75a20ee27fd9adebab32041f755214dbc6bffa90cc0225b39da2e5c2d3b90600090a280511561008657610081828261010e565b505050565b61008e610185565b5050565b806001600160a01b03163b6000036100cd57604051634c9c8ce360e01b81526001600160a01b03821660048201526024015b60405180910390fd5b7f360894a13ba1a3210667c828492db98dca3e2076cc3735a920a3ca505d382bbc80546001600160a01b0319166001600160a01b0392909216919091179055565b6060600080846001600160a01b03168460405161012b9190610336565b600060405180830381855af49150503d8060008114610166576040519150601f19603f3d011682016040523d82523d6000602084013e61016b565b606091505b50909250905061017c8583836101a6565b95945050505050565b34156101a45760405163b398979f60e01b815260040160405180910390fd5b565b6060826101bb576101b682610205565b6101fe565b81511580156101d257506001600160a01b0384163b155b156101fb57604051639996b31560e01b81526001600160a01b03851660048201526024016100c4565b50805b9392505050565b8051156102155780518082602001fd5b604051630a12f52160e11b815260040160405180910390fd5b634e487b7160e01b600052604160045260246000fd5b60005b8381101561025f578181015183820152602001610247565b50506000910152565b6000806040838503121561027b57600080fd5b82516001600160a01b038116811461029257600080fd5b60208401519092506001600160401b03808211156102af57600080fd5b818501915085601f8301126102c357600080fd5b8151818111156102d5576102d561022e565b604051601f8201601f19908116603f011681019083821181831017156102fd576102fd61022e565b8160405282815288602084870101111561031657600080fd5b610327836020830160208801610244565b80955050505050509250929050565b60008251610348818460208701610244565b9190910192915050565b60aa806103606000396000f3fe6080604052600a600c565b005b60186014601a565b6051565b565b6000604c7f360894a13ba1a3210667c828492db98dca3e2076cc3735a920a3ca505d382bbc546001600160a01b031690565b905090565b3660008037600080366000845af43d6000803e808015606f573d6000f35b3d6000fdfea264697066735822122076efb2559dd012d0004d0e971ab9f300a5bcd6a5b160a4d8726f19682eb3e32864736f6c634300081700330000000000000000000000000df9fb36ce258a7d445944208527e60b001d95e100000000000000000000000000000000000000000000000000000000000000400000000000000000000000000000000000000000000000000000000000000064c0c53b8b000000000000000000000000f885390b75035e94ac72aef3e0d0ed5ec3b85d37000000000000000000000000fdf1b2c4e291b17f8e998e89cf28985faf3ce6a1000000000000000000000000acc51ffdef63fb0c014c882267c3a17261a5ed5000000000000000000000000000000000000000000000000000000000",
        "nonce": "0x5d",
        "chainId": "0xa4b1"
      },
      "additionalContracts": [],
      "isFixedGasLimit": false
    },
    {
      "hash": "0x4cad3e5c538fe953c17a734eb444acb3094c5bba9602fa55283d91af3a85fa46",
      "transactionType": "CALL",
      "contractName": null,
      "contractAddress": "0xfdf1b2c4e291b17f8e998e89cf28985faf3ce6a1",
      "function": "setTotalRewardPerEpoch(uint256)",
      "arguments": [
        "50000000000000000000000"
      ],
      "transaction": {
        "from": "0xf885390b75035e94ac72aef3e0d0ed5ec3b85d37",
        "to": "0xfdf1b2c4e291b17f8e998e89cf28985faf3ce6a1",
        "gas": "0x6037c",
        "value": "0x0",
        "input": "0x5777bedc000000000000000000000000000000000000000000000a968163f0a57b400000",
        "nonce": "0x5e",
        "chainId": "0xa4b1"
      },
      "additionalContracts": [],
      "isFixedGasLimit": false
    },
    {
      "hash": "0xd317818b1b59fad222a4bfa2edc8804d89fd7c5dbfde06109941bb656efd22f3",
      "transactionType": "CALL",
      "contractName": null,
      "contractAddress": "0xfdf1b2c4e291b17f8e998e89cf28985faf3ce6a1",
      "function": "addGauge((uint256,uint256,uint8,address))",
      "arguments": [
        "(42161, 3250000000000000000000, 1, 0xc16f3f88Bd88CD28fb95df9628866149b1561528)"
      ],
      "transaction": {
        "from": "0xf885390b75035e94ac72aef3e0d0ed5ec3b85d37",
        "to": "0xfdf1b2c4e291b17f8e998e89cf28985faf3ce6a1",
        "gas": "0x3868f",
        "value": "0x0",
        "input": "0xb5cd60cf000000000000000000000000000000000000000000000000000000000000a4b10000000000000000000000000000000000000000000000b02ecf74c3138800000000000000000000000000000000000000000000000000000000000000000001000000000000000000000000c16f3f88bd88cd28fb95df9628866149b1561528",
        "nonce": "0x5f",
        "chainId": "0xa4b1"
      },
      "additionalContracts": [],
      "isFixedGasLimit": false
    },
    {
      "hash": "0xd00f1077311eaa9ca6a752477031f224383b8d9b02bc997cc252f1e609365a0f",
      "transactionType": "CALL",
      "contractName": null,
      "contractAddress": "0xfdf1b2c4e291b17f8e998e89cf28985faf3ce6a1",
      "function": "addGauge((uint256,uint256,uint8,address))",
      "arguments": [
        "(42161, 3250000000000000000000, 1, 0x51d4D761346B8ce4667896825dce39e8c9849D06)"
      ],
      "transaction": {
        "from": "0xf885390b75035e94ac72aef3e0d0ed5ec3b85d37",
        "to": "0xfdf1b2c4e291b17f8e998e89cf28985faf3ce6a1",
        "gas": "0x2c32e",
        "value": "0x0",
        "input": "0xb5cd60cf000000000000000000000000000000000000000000000000000000000000a4b10000000000000000000000000000000000000000000000b02ecf74c313880000000000000000000000000000000000000000000000000000000000000000000100000000000000000000000051d4d761346b8ce4667896825dce39e8c9849d06",
        "nonce": "0x60",
        "chainId": "0xa4b1"
      },
      "additionalContracts": [],
      "isFixedGasLimit": false
    },
    {
      "hash": "0x2a01bd2b66f278f706b62d88fb0e6142289da35f4070830ce7c9f9aaa4557b2b",
      "transactionType": "CALL",
      "contractName": null,
      "contractAddress": "0xfdf1b2c4e291b17f8e998e89cf28985faf3ce6a1",
      "function": "addGauge((uint256,uint256,uint8,address))",
      "arguments": [
        "(42161, 3250000000000000000000, 1, 0x4927a62feFE180f9E6307Ef5cb34f94FcAd09227)"
      ],
      "transaction": {
        "from": "0xf885390b75035e94ac72aef3e0d0ed5ec3b85d37",
        "to": "0xfdf1b2c4e291b17f8e998e89cf28985faf3ce6a1",
        "gas": "0x2c32e",
        "value": "0x0",
        "input": "0xb5cd60cf000000000000000000000000000000000000000000000000000000000000a4b10000000000000000000000000000000000000000000000b02ecf74c31388000000000000000000000000000000000000000000000000000000000000000000010000000000000000000000004927a62fefe180f9e6307ef5cb34f94fcad09227",
        "nonce": "0x61",
        "chainId": "0xa4b1"
      },
      "additionalContracts": [],
      "isFixedGasLimit": false
    },
    {
      "hash": "0x2f6867b0a6e893388fb607b2ca14c88e468039350385f1a950bcec5f9b0d8694",
      "transactionType": "CALL",
      "contractName": null,
      "contractAddress": "0xfdf1b2c4e291b17f8e998e89cf28985faf3ce6a1",
      "function": "addGauge((uint256,uint256,uint8,address))",
      "arguments": [
        "(42161, 3250000000000000000000, 1, 0x97b1f6a13500de55B62b57B2D9e30Ca9E9bAB11B)"
      ],
      "transaction": {
        "from": "0xf885390b75035e94ac72aef3e0d0ed5ec3b85d37",
        "to": "0xfdf1b2c4e291b17f8e998e89cf28985faf3ce6a1",
        "gas": "0x29bd3",
        "value": "0x0",
        "input": "0xb5cd60cf000000000000000000000000000000000000000000000000000000000000a4b10000000000000000000000000000000000000000000000b02ecf74c313880000000000000000000000000000000000000000000000000000000000000000000100000000000000000000000097b1f6a13500de55b62b57b2d9e30ca9e9bab11b",
        "nonce": "0x62",
        "chainId": "0xa4b1"
      },
      "additionalContracts": [],
      "isFixedGasLimit": false
    },
    {
      "hash": "0xe3645d2c9ef7ed4f767a7f700f51bf0dbad65fcce0dd1d60ed126e9a1d3c3751",
      "transactionType": "CALL",
      "contractName": null,
      "contractAddress": "0xfdf1b2c4e291b17f8e998e89cf28985faf3ce6a1",
      "function": "addGauge((uint256,uint256,uint8,address))",
      "arguments": [
        "(42161, 2000000000000000000000, 1, 0x61e9B42f28cdF30173c591b2eB38023ed969d437)"
      ],
      "transaction": {
        "from": "0xf885390b75035e94ac72aef3e0d0ed5ec3b85d37",
        "to": "0xfdf1b2c4e291b17f8e998e89cf28985faf3ce6a1",
        "gas": "0x2c32e",
        "value": "0x0",
        "input": "0xb5cd60cf000000000000000000000000000000000000000000000000000000000000a4b100000000000000000000000000000000000000000000006c6b935b8bbd400000000000000000000000000000000000000000000000000000000000000000000100000000000000000000000061e9b42f28cdf30173c591b2eb38023ed969d437",
        "nonce": "0x63",
        "chainId": "0xa4b1"
      },
      "additionalContracts": [],
      "isFixedGasLimit": false
    }
  ],
  "receipts": [
    {
      "status": "0x1",
      "cumulativeGasUsed": "0x65b58e",
      "logs": [
        {
          "address": "0x0df9fb36ce258a7d445944208527e60b001d95e1",
          "topics": [
            "0xc7f505b2f371ae2175ee4913f4499e1f2633a7b5936321eed1cdaeb6115181d2"
          ],
          "data": "0x000000000000000000000000000000000000000000000000ffffffffffffffff",
          "blockHash": "0x3d1eee7079774c9db64d9aee8d0b512529d3606f6e2786e396ce9725e85e2e4a",
          "blockNumber": "0xf947d26",
          "transactionHash": "0x44d7001d42348cdf576e0f39d57c4ea30004889c81ecf3d87ed436f8e289a673",
          "transactionIndex": "0x4",
          "logIndex": "0x11",
          "removed": false
        }
      ],
      "logsBloom": "0x00000000000000000000000000000000000000000000000000000000020000000000000000000000000000000000000000000080000000000000000000000000000000000000000000000000000000000000000000000000000000000000000000000000000000000000000000000000000000000000000000000000000000000000000000000000000800000000000000000000000080000000000000000000000000000000000000000000000000000000000000000000000000000000000000000000000000000000000000000000000000000004000000000000000000000000000000000000000000000000000000000400000000000000000000000000",
      "type": "0x2",
      "transactionHash": "0x44d7001d42348cdf576e0f39d57c4ea30004889c81ecf3d87ed436f8e289a673",
      "transactionIndex": "0x4",
      "blockHash": "0x3d1eee7079774c9db64d9aee8d0b512529d3606f6e2786e396ce9725e85e2e4a",
      "blockNumber": "0xf947d26",
      "gasUsed": "0x3afba3",
      "effectiveGasPrice": "0x989680",
      "from": "0xf885390b75035e94ac72aef3e0d0ed5ec3b85d37",
      "to": null,
      "contractAddress": "0x0df9fb36ce258a7d445944208527e60b001d95e1",
      "gasUsedForL1": "0x2d3aa9",
      "l1BlockNumber": "0x13f23dd"
    },
    {
      "status": "0x1",
      "cumulativeGasUsed": "0x171c90",
      "logs": [
        {
          "address": "0xc16f3f88bd88cd28fb95df9628866149b1561528",
          "topics": [
            "0xbc7cd75a20ee27fd9adebab32041f755214dbc6bffa90cc0225b39da2e5c2d3b",
            "0x0000000000000000000000000df9fb36ce258a7d445944208527e60b001d95e1"
          ],
          "data": "0x",
          "blockHash": "0xdcc068232b058960fb535eefbbf6c19a97c68c70074b6c8b129d7c03bc78ae0c",
          "blockNumber": "0xf947d2c",
          "transactionHash": "0xe9d1cd1373a07d6ad46552ea9fe6ae37fc47d7b4826d92206c6bd1acd1153ed4",
          "transactionIndex": "0x1",
          "logIndex": "0x0",
          "removed": false
        },
        {
          "address": "0xc16f3f88bd88cd28fb95df9628866149b1561528",
          "topics": [
            "0x8be0079c531659141344cd1fd0a4f28419497f9722a3daafe3b4186f6b6457e0",
            "0x0000000000000000000000000000000000000000000000000000000000000000",
            "0x000000000000000000000000f885390b75035e94ac72aef3e0d0ed5ec3b85d37"
          ],
          "data": "0x",
          "blockHash": "0xdcc068232b058960fb535eefbbf6c19a97c68c70074b6c8b129d7c03bc78ae0c",
          "blockNumber": "0xf947d2c",
          "transactionHash": "0xe9d1cd1373a07d6ad46552ea9fe6ae37fc47d7b4826d92206c6bd1acd1153ed4",
          "transactionIndex": "0x1",
          "logIndex": "0x1",
          "removed": false
        },
        {
          "address": "0xc16f3f88bd88cd28fb95df9628866149b1561528",
          "topics": [
            "0xc7f505b2f371ae2175ee4913f4499e1f2633a7b5936321eed1cdaeb6115181d2"
          ],
          "data": "0x0000000000000000000000000000000000000000000000000000000000000001",
          "blockHash": "0xdcc068232b058960fb535eefbbf6c19a97c68c70074b6c8b129d7c03bc78ae0c",
          "blockNumber": "0xf947d2c",
          "transactionHash": "0xe9d1cd1373a07d6ad46552ea9fe6ae37fc47d7b4826d92206c6bd1acd1153ed4",
          "transactionIndex": "0x1",
          "logIndex": "0x2",
          "removed": false
        }
      ],
      "logsBloom": "0x00000000000020000000000000000000400000000400000000800000000000000000000000000000000000000000000000000000000002000000000000000000100000000000000000000400000002000001000000000000000000000000000000000000020000000000000000000800000000000000000800000000000000400002000000000000000800000000000000000000000080000000000000000000000000000000000000000000000000000000000000000000000000000000000000000020000000000000000000001000000000000004000000000000000020000000000000000000000000000000000000000000000000008000000000000000",
      "type": "0x2",
      "transactionHash": "0xe9d1cd1373a07d6ad46552ea9fe6ae37fc47d7b4826d92206c6bd1acd1153ed4",
      "transactionIndex": "0x1",
      "blockHash": "0xdcc068232b058960fb535eefbbf6c19a97c68c70074b6c8b129d7c03bc78ae0c",
      "blockNumber": "0xf947d2c",
      "gasUsed": "0x171c90",
      "effectiveGasPrice": "0x989680",
      "from": "0xf885390b75035e94ac72aef3e0d0ed5ec3b85d37",
      "to": null,
      "contractAddress": "0xc16f3f88bd88cd28fb95df9628866149b1561528",
      "gasUsedForL1": "0x13a8fb",
      "l1BlockNumber": "0x13f23dd"
    },
    {
      "status": "0x1",
      "cumulativeGasUsed": "0x1725e7",
      "logs": [
        {
          "address": "0x51d4d761346b8ce4667896825dce39e8c9849d06",
          "topics": [
            "0xbc7cd75a20ee27fd9adebab32041f755214dbc6bffa90cc0225b39da2e5c2d3b",
            "0x0000000000000000000000000df9fb36ce258a7d445944208527e60b001d95e1"
          ],
          "data": "0x",
          "blockHash": "0x415db98077a80d57f4725ae00f711aab00a88b3c4b74a7477fbac5aea22e8891",
          "blockNumber": "0xf947d32",
          "transactionHash": "0x6539c796a16aae1a24af35f541a65ee8373d11d29a59cbccb31ba23de7fcad14",
          "transactionIndex": "0x1",
          "logIndex": "0x0",
          "removed": false
        },
        {
          "address": "0x51d4d761346b8ce4667896825dce39e8c9849d06",
          "topics": [
            "0x8be0079c531659141344cd1fd0a4f28419497f9722a3daafe3b4186f6b6457e0",
            "0x0000000000000000000000000000000000000000000000000000000000000000",
            "0x000000000000000000000000f885390b75035e94ac72aef3e0d0ed5ec3b85d37"
          ],
          "data": "0x",
          "blockHash": "0x415db98077a80d57f4725ae00f711aab00a88b3c4b74a7477fbac5aea22e8891",
          "blockNumber": "0xf947d32",
          "transactionHash": "0x6539c796a16aae1a24af35f541a65ee8373d11d29a59cbccb31ba23de7fcad14",
          "transactionIndex": "0x1",
          "logIndex": "0x1",
          "removed": false
        },
        {
          "address": "0x51d4d761346b8ce4667896825dce39e8c9849d06",
          "topics": [
            "0xc7f505b2f371ae2175ee4913f4499e1f2633a7b5936321eed1cdaeb6115181d2"
          ],
          "data": "0x0000000000000000000000000000000000000000000000000000000000000001",
          "blockHash": "0x415db98077a80d57f4725ae00f711aab00a88b3c4b74a7477fbac5aea22e8891",
          "blockNumber": "0xf947d32",
          "transactionHash": "0x6539c796a16aae1a24af35f541a65ee8373d11d29a59cbccb31ba23de7fcad14",
          "transactionIndex": "0x1",
          "logIndex": "0x2",
          "removed": false
        }
      ],
      "logsBloom": "0x00000000000020000000000000000000400000000400000000800000000000000000000000000000000000000400000000000000000000000000002000000000100000000000000000000400000002000001000000000000000000000000000000000000020000000000000000000800000000000000000800000000000000400002000000000000000800000000000000000000000080000000000000000000000000000000000000000000000000000000000000000000000000000000000000000020000000000000000000000000000000000004000000000000000020020000000000000000000000000000000000000000000000000000000000000000",
      "type": "0x2",
      "transactionHash": "0x6539c796a16aae1a24af35f541a65ee8373d11d29a59cbccb31ba23de7fcad14",
      "transactionIndex": "0x1",
      "blockHash": "0x415db98077a80d57f4725ae00f711aab00a88b3c4b74a7477fbac5aea22e8891",
      "blockNumber": "0xf947d32",
      "gasUsed": "0x1725e7",
      "effectiveGasPrice": "0x989680",
      "from": "0xf885390b75035e94ac72aef3e0d0ed5ec3b85d37",
      "to": null,
      "contractAddress": "0x51d4d761346b8ce4667896825dce39e8c9849d06",
      "gasUsedForL1": "0x13b252",
      "l1BlockNumber": "0x13f23dd"
    },
    {
      "status": "0x1",
      "cumulativeGasUsed": "0x1a2f49",
      "logs": [
        {
          "address": "0x4927a62fefe180f9e6307ef5cb34f94fcad09227",
          "topics": [
            "0xbc7cd75a20ee27fd9adebab32041f755214dbc6bffa90cc0225b39da2e5c2d3b",
            "0x0000000000000000000000000df9fb36ce258a7d445944208527e60b001d95e1"
          ],
          "data": "0x",
          "blockHash": "0x98fe42b12fce72fc385d2533c30737a99680c5250d97035377420a203980dcc0",
          "blockNumber": "0xf947d37",
          "transactionHash": "0x1ad1aece18755a55039af94b52ef1fb6b129658e61b61fbbd8448565035ccb8b",
          "transactionIndex": "0x2",
          "logIndex": "0x1",
          "removed": false
        },
        {
          "address": "0x4927a62fefe180f9e6307ef5cb34f94fcad09227",
          "topics": [
            "0x8be0079c531659141344cd1fd0a4f28419497f9722a3daafe3b4186f6b6457e0",
            "0x0000000000000000000000000000000000000000000000000000000000000000",
            "0x000000000000000000000000f885390b75035e94ac72aef3e0d0ed5ec3b85d37"
          ],
          "data": "0x",
          "blockHash": "0x98fe42b12fce72fc385d2533c30737a99680c5250d97035377420a203980dcc0",
          "blockNumber": "0xf947d37",
          "transactionHash": "0x1ad1aece18755a55039af94b52ef1fb6b129658e61b61fbbd8448565035ccb8b",
          "transactionIndex": "0x2",
          "logIndex": "0x2",
          "removed": false
        },
        {
          "address": "0x4927a62fefe180f9e6307ef5cb34f94fcad09227",
          "topics": [
            "0xc7f505b2f371ae2175ee4913f4499e1f2633a7b5936321eed1cdaeb6115181d2"
          ],
          "data": "0x0000000000000000000000000000000000000000000000000000000000000001",
          "blockHash": "0x98fe42b12fce72fc385d2533c30737a99680c5250d97035377420a203980dcc0",
          "blockNumber": "0xf947d37",
          "transactionHash": "0x1ad1aece18755a55039af94b52ef1fb6b129658e61b61fbbd8448565035ccb8b",
          "transactionIndex": "0x2",
          "logIndex": "0x3",
          "removed": false
        }
      ],
      "logsBloom": "0x00000000000020000000000000000000400000000400000000800000000000000000000000000000000000000000000000000000000000000000000000000000100000000000000000000400000002000001000000000000000000000000000000000000020000000000000000000800000000000000000800000000000000400002000000000000000a00000000000000000000000080000000000000000000000000000200000040000000000000000000000000000000000000000000000000000020000000000000000000000000000000000004000000000000000020000000000000000000000000000000000000000000000000000000000000000000",
      "type": "0x2",
      "transactionHash": "0x1ad1aece18755a55039af94b52ef1fb6b129658e61b61fbbd8448565035ccb8b",
      "transactionIndex": "0x2",
      "blockHash": "0x98fe42b12fce72fc385d2533c30737a99680c5250d97035377420a203980dcc0",
      "blockNumber": "0xf947d37",
      "gasUsed": "0x1717e5",
      "effectiveGasPrice": "0x989680",
      "from": "0xf885390b75035e94ac72aef3e0d0ed5ec3b85d37",
      "to": null,
      "contractAddress": "0x4927a62fefe180f9e6307ef5cb34f94fcad09227",
      "gasUsedForL1": "0x13a450",
      "l1BlockNumber": "0x13f23dd"
    },
    {
      "status": "0x1",
      "cumulativeGasUsed": "0x2019cd",
      "logs": [
        {
          "address": "0x97b1f6a13500de55b62b57b2d9e30ca9e9bab11b",
          "topics": [
            "0xbc7cd75a20ee27fd9adebab32041f755214dbc6bffa90cc0225b39da2e5c2d3b",
            "0x0000000000000000000000000df9fb36ce258a7d445944208527e60b001d95e1"
          ],
          "data": "0x",
          "blockHash": "0xb2d3e4b1995dd6634585229ba2e380bdd1658dbb87dd073331b082e9f7a297db",
          "blockNumber": "0xf947d3c",
          "transactionHash": "0x956967def71e90563c28178e31f6e2eea21822efbd9213a4c5b979c30f420b1c",
          "transactionIndex": "0x2",
          "logIndex": "0x1",
          "removed": false
        },
        {
          "address": "0x97b1f6a13500de55b62b57b2d9e30ca9e9bab11b",
          "topics": [
            "0x8be0079c531659141344cd1fd0a4f28419497f9722a3daafe3b4186f6b6457e0",
            "0x0000000000000000000000000000000000000000000000000000000000000000",
            "0x000000000000000000000000f885390b75035e94ac72aef3e0d0ed5ec3b85d37"
          ],
          "data": "0x",
          "blockHash": "0xb2d3e4b1995dd6634585229ba2e380bdd1658dbb87dd073331b082e9f7a297db",
          "blockNumber": "0xf947d3c",
          "transactionHash": "0x956967def71e90563c28178e31f6e2eea21822efbd9213a4c5b979c30f420b1c",
          "transactionIndex": "0x2",
          "logIndex": "0x2",
          "removed": false
        },
        {
          "address": "0x97b1f6a13500de55b62b57b2d9e30ca9e9bab11b",
          "topics": [
            "0xc7f505b2f371ae2175ee4913f4499e1f2633a7b5936321eed1cdaeb6115181d2"
          ],
          "data": "0x0000000000000000000000000000000000000000000000000000000000000001",
          "blockHash": "0xb2d3e4b1995dd6634585229ba2e380bdd1658dbb87dd073331b082e9f7a297db",
          "blockNumber": "0xf947d3c",
          "transactionHash": "0x956967def71e90563c28178e31f6e2eea21822efbd9213a4c5b979c30f420b1c",
          "transactionIndex": "0x2",
          "logIndex": "0x3",
          "removed": false
        }
      ],
      "logsBloom": "0x00000000000020000000000000000000400040000400000000800000000000000000000000000000000000000000000000000000000000000000000000000000100000000000000000000400000002000001000000000000000000000000000000000000020000000000000000000800000000000000000800000000000000400002800000000000000900000000000000000000000080000000000000000000000000000000000000000000000000000000000000000000000000000000000000000020000000000000000000000000000000000004000000000000000020000000000000000000000000000000000000000000000000000000000000000000",
      "type": "0x2",
      "transactionHash": "0x956967def71e90563c28178e31f6e2eea21822efbd9213a4c5b979c30f420b1c",
      "transactionIndex": "0x2",
      "blockHash": "0xb2d3e4b1995dd6634585229ba2e380bdd1658dbb87dd073331b082e9f7a297db",
      "blockNumber": "0xf947d3c",
      "gasUsed": "0x171c90",
      "effectiveGasPrice": "0x989680",
      "from": "0xf885390b75035e94ac72aef3e0d0ed5ec3b85d37",
      "to": null,
      "contractAddress": "0x97b1f6a13500de55b62b57b2d9e30ca9e9bab11b",
      "gasUsedForL1": "0x13a8fb",
      "l1BlockNumber": "0x13f23dd"
    },
    {
      "status": "0x1",
      "cumulativeGasUsed": "0x22dabd",
      "logs": [
        {
          "address": "0x61e9b42f28cdf30173c591b2eb38023ed969d437",
          "topics": [
            "0xbc7cd75a20ee27fd9adebab32041f755214dbc6bffa90cc0225b39da2e5c2d3b",
            "0x0000000000000000000000000df9fb36ce258a7d445944208527e60b001d95e1"
          ],
          "data": "0x",
          "blockHash": "0x931a9657c17f1a5b69eaf34950581bd94b662bfe4b623eccf5597a406259f663",
          "blockNumber": "0xf947d41",
          "transactionHash": "0x2d389a4e8edbf77912f5d4440226231d76aaff596fa7e5567b87347787ec897b",
          "transactionIndex": "0x3",
          "logIndex": "0x4",
          "removed": false
        },
        {
          "address": "0x61e9b42f28cdf30173c591b2eb38023ed969d437",
          "topics": [
            "0x8be0079c531659141344cd1fd0a4f28419497f9722a3daafe3b4186f6b6457e0",
            "0x0000000000000000000000000000000000000000000000000000000000000000",
            "0x000000000000000000000000f885390b75035e94ac72aef3e0d0ed5ec3b85d37"
          ],
          "data": "0x",
          "blockHash": "0x931a9657c17f1a5b69eaf34950581bd94b662bfe4b623eccf5597a406259f663",
          "blockNumber": "0xf947d41",
          "transactionHash": "0x2d389a4e8edbf77912f5d4440226231d76aaff596fa7e5567b87347787ec897b",
          "transactionIndex": "0x3",
          "logIndex": "0x5",
          "removed": false
        },
        {
          "address": "0x61e9b42f28cdf30173c591b2eb38023ed969d437",
          "topics": [
            "0xc7f505b2f371ae2175ee4913f4499e1f2633a7b5936321eed1cdaeb6115181d2"
          ],
          "data": "0x0000000000000000000000000000000000000000000000000000000000000001",
          "blockHash": "0x931a9657c17f1a5b69eaf34950581bd94b662bfe4b623eccf5597a406259f663",
          "blockNumber": "0xf947d41",
          "transactionHash": "0x2d389a4e8edbf77912f5d4440226231d76aaff596fa7e5567b87347787ec897b",
          "transactionIndex": "0x3",
          "logIndex": "0x6",
          "removed": false
        }
      ],
      "logsBloom": "0x00000000800020000000000000000000400000000400000000800000000000000000000000000000000020000000000000000000000000000000000000000000100000000000000000000400000002000001000000000000000000000000000000000000020000000000000000000800000000000000000800000000000000400002000000000000000800000000000000000000000090000000000000000000000000000000000000000000000000000000000000000000000000000000000000000020000000000000000000000000000000000004000000000000000020000000000000000000000000000000000000000000000000000000000000000000",
      "type": "0x2",
      "transactionHash": "0x2d389a4e8edbf77912f5d4440226231d76aaff596fa7e5567b87347787ec897b",
      "transactionIndex": "0x3",
      "blockHash": "0x931a9657c17f1a5b69eaf34950581bd94b662bfe4b623eccf5597a406259f663",
      "blockNumber": "0xf947d41",
      "gasUsed": "0x172f3d",
      "effectiveGasPrice": "0x989680",
      "from": "0xf885390b75035e94ac72aef3e0d0ed5ec3b85d37",
      "to": null,
      "contractAddress": "0x61e9b42f28cdf30173c591b2eb38023ed969d437",
      "gasUsedForL1": "0x13bba8",
      "l1BlockNumber": "0x13f23dd"
    },
    {
      "status": "0x1",
      "cumulativeGasUsed": "0x15e33d",
      "logs": [],
      "logsBloom": "0x00000000000000000000000000000000000000000000000000000000000000000000000000000000000000000000000000000000000000000000000000000000000000000000000000000000000000000000000000000000000000000000000000000000000000000000000000000000000000000000000000000000000000000000000000000000000000000000000000000000000000000000000000000000000000000000000000000000000000000000000000000000000000000000000000000000000000000000000000000000000000000000000000000000000000000000000000000000000000000000000000000000000000000000000000000000",
      "type": "0x2",
      "transactionHash": "0x4cad3e5c538fe953c17a734eb444acb3094c5bba9602fa55283d91af3a85fa46",
      "transactionIndex": "0x2",
      "blockHash": "0xcc4cc42de2f4fe7fca0ea2bfe3a85f37e001ffb5c3e75242361ea435b6561396",
      "blockNumber": "0xf947d45",
      "gasUsed": "0x3aa37",
      "effectiveGasPrice": "0x989680",
      "from": "0xf885390b75035e94ac72aef3e0d0ed5ec3b85d37",
      "to": "0xfdf1b2c4e291b17f8e998e89cf28985faf3ce6a1",
      "contractAddress": null,
      "gasUsedForL1": "0x2b2fc",
      "l1BlockNumber": "0x13f23dd"
    },
    {
      "status": "0x1",
      "cumulativeGasUsed": "0x1e7c24",
      "logs": [
        {
          "address": "0xfdf1b2c4e291b17f8e998e89cf28985faf3ce6a1",
          "topics": [
            "0xd4543705df0cd4b2db9c16ec48c6c3fb20ce223e79f003406021ecbac3bc9ce6"
          ],
          "data": "0x000000000000000000000000000000000000000000000000000000000000a4b10000000000000000000000000000000000000000000000b02ecf74c3138800000000000000000000000000000000000000000000000000000000000000000001000000000000000000000000c16f3f88bd88cd28fb95df9628866149b1561528",
          "blockHash": "0x8a75f1d55d6c220bf809bd821ec1f77ec46a549d8c6973020827f31397725455",
          "blockNumber": "0xf947d4b",
          "transactionHash": "0xd317818b1b59fad222a4bfa2edc8804d89fd7c5dbfde06109941bb656efd22f3",
          "transactionIndex": "0x5",
          "logIndex": "0xa",
          "removed": false
        }
      ],
      "logsBloom": "0x00000000000000000000000000000000000000000000000000000000000000000000000000000000000000000000000020000000000000000000000000000000080000000000000000000000000000000000000000000000000800000000000000000000000040000000000000000000000000000000000000000000000000000000000000000000000002000000000000000000000000000000000000000000000000000000000000000000000000000000000000000000000000000000000200000000000000000000000000000000000000000000000000000000000000000000000000000000000000000000000000000000000000000000000000000000",
      "type": "0x2",
      "transactionHash": "0xd317818b1b59fad222a4bfa2edc8804d89fd7c5dbfde06109941bb656efd22f3",
      "transactionIndex": "0x5",
      "blockHash": "0x8a75f1d55d6c220bf809bd821ec1f77ec46a549d8c6973020827f31397725455",
      "blockNumber": "0xf947d4b",
      "gasUsed": "0x6e0ff",
      "effectiveGasPrice": "0x989680",
      "from": "0xf885390b75035e94ac72aef3e0d0ed5ec3b85d37",
      "to": "0xfdf1b2c4e291b17f8e998e89cf28985faf3ce6a1",
      "contractAddress": null,
      "gasUsedForL1": "0x477dc",
      "l1BlockNumber": "0x13f23dd"
    },
    {
      "status": "0x1",
      "cumulativeGasUsed": "0x1b9dc4",
      "logs": [
        {
          "address": "0xfdf1b2c4e291b17f8e998e89cf28985faf3ce6a1",
          "topics": [
            "0xd4543705df0cd4b2db9c16ec48c6c3fb20ce223e79f003406021ecbac3bc9ce6"
          ],
          "data": "0x000000000000000000000000000000000000000000000000000000000000a4b10000000000000000000000000000000000000000000000b02ecf74c313880000000000000000000000000000000000000000000000000000000000000000000100000000000000000000000051d4d761346b8ce4667896825dce39e8c9849d06",
          "blockHash": "0x5177d635c6940c50f0031975fa3911ee35a243025c754f2ecef452d96f505d95",
          "blockNumber": "0xf947d4f",
          "transactionHash": "0xd00f1077311eaa9ca6a752477031f224383b8d9b02bc997cc252f1e609365a0f",
          "transactionIndex": "0x6",
          "logIndex": "0x8",
          "removed": false
        }
      ],
      "logsBloom": "0x00000000000000000000000000000000000000000000000000000000000000000000000000000000000000000000000020000000000000000000000000000000080000000000000000000000000000000000000000000000000800000000000000000000000040000000000000000000000000000000000000000000000000000000000000000000000002000000000000000000000000000000000000000000000000000000000000000000000000000000000000000000000000000000000200000000000000000000000000000000000000000000000000000000000000000000000000000000000000000000000000000000000000000000000000000000",
      "type": "0x2",
      "transactionHash": "0xd00f1077311eaa9ca6a752477031f224383b8d9b02bc997cc252f1e609365a0f",
      "transactionIndex": "0x6",
      "blockHash": "0x5177d635c6940c50f0031975fa3911ee35a243025c754f2ecef452d96f505d95",
      "blockNumber": "0xf947d4f",
      "gasUsed": "0x65b67",
      "effectiveGasPrice": "0x989680",
      "from": "0xf885390b75035e94ac72aef3e0d0ed5ec3b85d37",
      "to": "0xfdf1b2c4e291b17f8e998e89cf28985faf3ce6a1",
      "contractAddress": null,
      "gasUsedForL1": "0x477dc",
      "l1BlockNumber": "0x13f23de"
    },
    {
      "status": "0x1",
      "cumulativeGasUsed": "0x12cc84",
      "logs": [
        {
          "address": "0xfdf1b2c4e291b17f8e998e89cf28985faf3ce6a1",
          "topics": [
            "0xd4543705df0cd4b2db9c16ec48c6c3fb20ce223e79f003406021ecbac3bc9ce6"
          ],
          "data": "0x000000000000000000000000000000000000000000000000000000000000a4b10000000000000000000000000000000000000000000000b02ecf74c31388000000000000000000000000000000000000000000000000000000000000000000010000000000000000000000004927a62fefe180f9e6307ef5cb34f94fcad09227",
          "blockHash": "0x000d03462e60c4d11703e58d09458dc66946bf5323e209f453010f052b14ef53",
          "blockNumber": "0xf947d53",
          "transactionHash": "0x2a01bd2b66f278f706b62d88fb0e6142289da35f4070830ce7c9f9aaa4557b2b",
          "transactionIndex": "0x4",
          "logIndex": "0x7",
          "removed": false
        }
      ],
      "logsBloom": "0x00000000000000000000000000000000000000000000000000000000000000000000000000000000000000000000000020000000000000000000000000000000080000000000000000000000000000000000000000000000000800000000000000000000000040000000000000000000000000000000000000000000000000000000000000000000000002000000000000000000000000000000000000000000000000000000000000000000000000000000000000000000000000000000000200000000000000000000000000000000000000000000000000000000000000000000000000000000000000000000000000000000000000000000000000000000",
      "type": "0x2",
      "transactionHash": "0x2a01bd2b66f278f706b62d88fb0e6142289da35f4070830ce7c9f9aaa4557b2b",
      "transactionIndex": "0x4",
      "blockHash": "0x000d03462e60c4d11703e58d09458dc66946bf5323e209f453010f052b14ef53",
      "blockNumber": "0xf947d53",
      "gasUsed": "0x65b67",
      "effectiveGasPrice": "0x989680",
      "from": "0xf885390b75035e94ac72aef3e0d0ed5ec3b85d37",
      "to": "0xfdf1b2c4e291b17f8e998e89cf28985faf3ce6a1",
      "contractAddress": null,
      "gasUsedForL1": "0x477dc",
      "l1BlockNumber": "0x13f23de"
    },
    {
      "status": "0x1",
      "cumulativeGasUsed": "0x123bc2",
      "logs": [
        {
          "address": "0xfdf1b2c4e291b17f8e998e89cf28985faf3ce6a1",
          "topics": [
            "0xd4543705df0cd4b2db9c16ec48c6c3fb20ce223e79f003406021ecbac3bc9ce6"
          ],
          "data": "0x000000000000000000000000000000000000000000000000000000000000a4b10000000000000000000000000000000000000000000000b02ecf74c313880000000000000000000000000000000000000000000000000000000000000000000100000000000000000000000097b1f6a13500de55b62b57b2d9e30ca9e9bab11b",
          "blockHash": "0x84a74039d3b176cc1444a742f08115a57b85390ea325e6305ecf4d8f91be4c7c",
          "blockNumber": "0xf947d57",
          "transactionHash": "0x2f6867b0a6e893388fb607b2ca14c88e468039350385f1a950bcec5f9b0d8694",
          "transactionIndex": "0x2",
          "logIndex": "0x2",
          "removed": false
        }
      ],
      "logsBloom": "0x00000000000000000000000000000000000000000000000000000000000000000000000000000000000000000000000020000000000000000000000000000000080000000000000000000000000000000000000000000000000800000000000000000000000040000000000000000000000000000000000000000000000000000000000000000000000002000000000000000000000000000000000000000000000000000000000000000000000000000000000000000000000000000000000200000000000000000000000000000000000000000000000000000000000000000000000000000000000000000000000000000000000000000000000000000000",
      "type": "0x2",
      "transactionHash": "0x2f6867b0a6e893388fb607b2ca14c88e468039350385f1a950bcec5f9b0d8694",
      "transactionIndex": "0x2",
      "blockHash": "0x84a74039d3b176cc1444a742f08115a57b85390ea325e6305ecf4d8f91be4c7c",
      "blockNumber": "0xf947d57",
      "gasUsed": "0x65b5b",
      "effectiveGasPrice": "0x989680",
      "from": "0xf885390b75035e94ac72aef3e0d0ed5ec3b85d37",
      "to": "0xfdf1b2c4e291b17f8e998e89cf28985faf3ce6a1",
      "contractAddress": null,
      "gasUsedForL1": "0x477dc",
      "l1BlockNumber": "0x13f23de"
    },
    {
      "status": "0x1",
      "cumulativeGasUsed": "0x188d6c",
      "logs": [
        {
          "address": "0xfdf1b2c4e291b17f8e998e89cf28985faf3ce6a1",
          "topics": [
            "0xd4543705df0cd4b2db9c16ec48c6c3fb20ce223e79f003406021ecbac3bc9ce6"
          ],
          "data": "0x000000000000000000000000000000000000000000000000000000000000a4b100000000000000000000000000000000000000000000006c6b935b8bbd400000000000000000000000000000000000000000000000000000000000000000000100000000000000000000000061e9b42f28cdf30173c591b2eb38023ed969d437",
          "blockHash": "0x5791ae656e1b918199acfce3b3b4c7c85516b6087975150ef519f2ca5f7d7dc0",
          "blockNumber": "0xf947d5c",
          "transactionHash": "0xe3645d2c9ef7ed4f767a7f700f51bf0dbad65fcce0dd1d60ed126e9a1d3c3751",
          "transactionIndex": "0x3",
          "logIndex": "0x8",
          "removed": false
        }
      ],
      "logsBloom": "0x00000000000000000000000000000000000000000000000000000000000000000000000000000000000000000000000020000000000000000000000000000000080000000000000000000000000000000000000000000000000800000000000000000000000040000000000000000000000000000000000000000000000000000000000000000000000002000000000000000000000000000000000000000000000000000000000000000000000000000000000000000000000000000000000200000000000000000000000000000000000000000000000000000000000000000000000000000000000000000000000000000000000000000000000000000000",
      "type": "0x2",
      "transactionHash": "0xe3645d2c9ef7ed4f767a7f700f51bf0dbad65fcce0dd1d60ed126e9a1d3c3751",
      "transactionIndex": "0x3",
      "blockHash": "0x5791ae656e1b918199acfce3b3b4c7c85516b6087975150ef519f2ca5f7d7dc0",
      "blockNumber": "0xf947d5c",
      "gasUsed": "0x65b67",
      "effectiveGasPrice": "0x989680",
      "from": "0xf885390b75035e94ac72aef3e0d0ed5ec3b85d37",
      "to": "0xfdf1b2c4e291b17f8e998e89cf28985faf3ce6a1",
      "contractAddress": null,
      "gasUsedForL1": "0x477dc",
      "l1BlockNumber": "0x13f23de"
    }
  ],
  "libraries": [],
  "pending": [],
  "returns": {},
  "timestamp": 1728321998,
  "chain": 42161,
  "commit": "6d810c9"
}