{
  "transactions": [
    {
      "hash": "0x02ff69d9a65543a48bc2ff5b6466bb64daf41f75b622f9f9b668ef7b6baefcd4",
      "transactionType": "CALL",
      "contractName": null,
      "contractAddress": "0x9fBB3DF7C40Da2e5A0dE984fFE2CCB7C47cd0ABf",
      "function": "deploy(bytes32,bytes)",
      "arguments": [
        "0x53594b0000000000000000000000000000000000000000000000000000000000",
        "0x608060405260405161040a38038061040a83398101604081905261002291610268565b61002c8282610033565b5050610352565b61003c82610092565b6040516001600160a01b038316907fbc7cd75a20ee27fd9adebab32041f755214dbc6bffa90cc0225b39da2e5c2d3b90600090a280511561008657610081828261010e565b505050565b61008e610185565b5050565b806001600160a01b03163b6000036100cd57604051634c9c8ce360e01b81526001600160a01b03821660048201526024015b60405180910390fd5b7f360894a13ba1a3210667c828492db98dca3e2076cc3735a920a3ca505d382bbc80546001600160a01b0319166001600160a01b0392909216919091179055565b6060600080846001600160a01b03168460405161012b9190610336565b600060405180830381855af49150503d8060008114610166576040519150601f19603f3d011682016040523d82523d6000602084013e61016b565b606091505b50909250905061017c8583836101a6565b95945050505050565b34156101a45760405163b398979f60e01b815260040160405180910390fd5b565b6060826101bb576101b682610205565b6101fe565b81511580156101d257506001600160a01b0384163b155b156101fb57604051639996b31560e01b81526001600160a01b03851660048201526024016100c4565b50805b9392505050565b8051156102155780518082602001fd5b604051630a12f52160e11b815260040160405180910390fd5b634e487b7160e01b600052604160045260246000fd5b60005b8381101561025f578181015183820152602001610247565b50506000910152565b6000806040838503121561027b57600080fd5b82516001600160a01b038116811461029257600080fd5b60208401519092506001600160401b03808211156102af57600080fd5b818501915085601f8301126102c357600080fd5b8151818111156102d5576102d561022e565b604051601f8201601f19908116603f011681019083821181831017156102fd576102fd61022e565b8160405282815288602084870101111561031657600080fd5b610327836020830160208801610244565b80955050505050509250929050565b60008251610348818460208701610244565b9190910192915050565b60aa806103606000396000f3fe6080604052600a600c565b005b60186014601a565b6051565b565b6000604c7f360894a13ba1a3210667c828492db98dca3e2076cc3735a920a3ca505d382bbc546001600160a01b031690565b905090565b3660008037600080366000845af43d6000803e808015606f573d6000f35b3d6000fdfea264697066735822122076efb2559dd012d0004d0e971ab9f300a5bcd6a5b160a4d8726f19682eb3e32864736f6c63430008170033000000000000000000000000aa745695af0cea67fa8086a8205c4e9d7b8c569000000000000000000000000000000000000000000000000000000000000000400000000000000000000000000000000000000000000000000000000000000024c4d66de800000000000000000000000091bda4174c25efeef6f4e5721fa36e31e001580100000000000000000000000000000000000000000000000000000000"
      ],
      "transaction": {
        "type": "0x00",
        "from": "0xf885390b75035e94ac72aef3e0d0ed5ec3b85d37",
        "to": "0x9fbb3df7c40da2e5a0de984ffe2ccb7c47cd0abf",
        "gas": "0x497fe1",
        "value": "0x0",
        "data": "0xcdcb760a53594b0000000000000000000000000000000000000000000000000000000000000000000000000000000000000000000000000000000000000000000000004000000000000000000000000000000000000000000000000000000000000004aa608060405260405161040a38038061040a83398101604081905261002291610268565b61002c8282610033565b5050610352565b61003c82610092565b6040516001600160a01b038316907fbc7cd75a20ee27fd9adebab32041f755214dbc6bffa90cc0225b39da2e5c2d3b90600090a280511561008657610081828261010e565b505050565b61008e610185565b5050565b806001600160a01b03163b6000036100cd57604051634c9c8ce360e01b81526001600160a01b03821660048201526024015b60405180910390fd5b7f360894a13ba1a3210667c828492db98dca3e2076cc3735a920a3ca505d382bbc80546001600160a01b0319166001600160a01b0392909216919091179055565b6060600080846001600160a01b03168460405161012b9190610336565b600060405180830381855af49150503d8060008114610166576040519150601f19603f3d011682016040523d82523d6000602084013e61016b565b606091505b50909250905061017c8583836101a6565b95945050505050565b34156101a45760405163b398979f60e01b815260040160405180910390fd5b565b6060826101bb576101b682610205565b6101fe565b81511580156101d257506001600160a01b0384163b155b156101fb57604051639996b31560e01b81526001600160a01b03851660048201526024016100c4565b50805b9392505050565b8051156102155780518082602001fd5b604051630a12f52160e11b815260040160405180910390fd5b634e487b7160e01b600052604160045260246000fd5b60005b8381101561025f578181015183820152602001610247565b50506000910152565b6000806040838503121561027b57600080fd5b82516001600160a01b038116811461029257600080fd5b60208401519092506001600160401b03808211156102af57600080fd5b818501915085601f8301126102c357600080fd5b8151818111156102d5576102d561022e565b604051601f8201601f19908116603f011681019083821181831017156102fd576102fd61022e565b8160405282815288602084870101111561031657600080fd5b610327836020830160208801610244565b80955050505050509250929050565b60008251610348818460208701610244565b9190910192915050565b60aa806103606000396000f3fe6080604052600a600c565b005b60186014601a565b6051565b565b6000604c7f360894a13ba1a3210667c828492db98dca3e2076cc3735a920a3ca505d382bbc546001600160a01b031690565b905090565b3660008037600080366000845af43d6000803e808015606f573d6000f35b3d6000fdfea264697066735822122076efb2559dd012d0004d0e971ab9f300a5bcd6a5b160a4d8726f19682eb3e32864736f6c63430008170033000000000000000000000000aa745695af0cea67fa8086a8205c4e9d7b8c569000000000000000000000000000000000000000000000000000000000000000400000000000000000000000000000000000000000000000000000000000000024c4d66de800000000000000000000000091bda4174c25efeef6f4e5721fa36e31e00158010000000000000000000000000000000000000000000000000000000000000000000000000000000000000000000000000000",
        "nonce": "0x2"
      },
      "additionalContracts": [
        {
          "transactionType": "CREATE2",
          "address": "0x37ACC3646323ea9C38928eb75486f41E21E89f4b",
          "initCode": "0x67363d3d37363d34f03d5260086018f3"
        },
        {
          "transactionType": "CREATE",
          "address": "0xACC51FFDeF63fB0c014c882267C3A17261A5eD50",
          "initCode": "0x608060405260405161040a38038061040a83398101604081905261002291610268565b61002c8282610033565b5050610352565b61003c82610092565b6040516001600160a01b038316907fbc7cd75a20ee27fd9adebab32041f755214dbc6bffa90cc0225b39da2e5c2d3b90600090a280511561008657610081828261010e565b505050565b61008e610185565b5050565b806001600160a01b03163b6000036100cd57604051634c9c8ce360e01b81526001600160a01b03821660048201526024015b60405180910390fd5b7f360894a13ba1a3210667c828492db98dca3e2076cc3735a920a3ca505d382bbc80546001600160a01b0319166001600160a01b0392909216919091179055565b6060600080846001600160a01b03168460405161012b9190610336565b600060405180830381855af49150503d8060008114610166576040519150601f19603f3d011682016040523d82523d6000602084013e61016b565b606091505b50909250905061017c8583836101a6565b95945050505050565b34156101a45760405163b398979f60e01b815260040160405180910390fd5b565b6060826101bb576101b682610205565b6101fe565b81511580156101d257506001600160a01b0384163b155b156101fb57604051639996b31560e01b81526001600160a01b03851660048201526024016100c4565b50805b9392505050565b8051156102155780518082602001fd5b604051630a12f52160e11b815260040160405180910390fd5b634e487b7160e01b600052604160045260246000fd5b60005b8381101561025f578181015183820152602001610247565b50506000910152565b6000806040838503121561027b57600080fd5b82516001600160a01b038116811461029257600080fd5b60208401519092506001600160401b03808211156102af57600080fd5b818501915085601f8301126102c357600080fd5b8151818111156102d5576102d561022e565b604051601f8201601f19908116603f011681019083821181831017156102fd576102fd61022e565b8160405282815288602084870101111561031657600080fd5b610327836020830160208801610244565b80955050505050509250929050565b60008251610348818460208701610244565b9190910192915050565b60aa806103606000396000f3fe6080604052600a600c565b005b60186014601a565b6051565b565b6000604c7f360894a13ba1a3210667c828492db98dca3e2076cc3735a920a3ca505d382bbc546001600160a01b031690565b905090565b3660008037600080366000845af43d6000803e808015606f573d6000f35b3d6000fdfea264697066735822122076efb2559dd012d0004d0e971ab9f300a5bcd6a5b160a4d8726f19682eb3e32864736f6c63430008170033000000000000000000000000aa745695af0cea67fa8086a8205c4e9d7b8c569000000000000000000000000000000000000000000000000000000000000000400000000000000000000000000000000000000000000000000000000000000024c4d66de800000000000000000000000091bda4174c25efeef6f4e5721fa36e31e001580100000000000000000000000000000000000000000000000000000000"
        }
      ],
      "isFixedGasLimit": false
    }
  ],
  "receipts": [
    {
      "transactionHash": "0x02ff69d9a65543a48bc2ff5b6466bb64daf41f75b622f9f9b668ef7b6baefcd4",
      "transactionIndex": "0x4",
      "blockHash": "0xcff2a4996f4ea15a4e3285a408bef7c64c5efeb8dd48523bc3c9aa197a1776bf",
      "blockNumber": "0xbb7b6c5",
      "from": "0xf885390B75035e94ac72AeF3E0D0eD5ec3b85d37",
      "to": "0x9fBB3DF7C40Da2e5A0dE984fFE2CCB7C47cd0ABf",
      "cumulativeGasUsed": "0x142caad",
      "gasUsed": "0x31f618",
      "contractAddress": null,
      "logs": [
        {
          "address": "0xACC51FFDeF63fB0c014c882267C3A17261A5eD50",
          "topics": [
            "0xbc7cd75a20ee27fd9adebab32041f755214dbc6bffa90cc0225b39da2e5c2d3b",
            "0x000000000000000000000000aa745695af0cea67fa8086a8205c4e9d7b8c5690"
          ],
          "data": "0x",
          "blockHash": "0xcff2a4996f4ea15a4e3285a408bef7c64c5efeb8dd48523bc3c9aa197a1776bf",
          "blockNumber": "0xbb7b6c5",
          "transactionHash": "0x02ff69d9a65543a48bc2ff5b6466bb64daf41f75b622f9f9b668ef7b6baefcd4",
          "transactionIndex": "0x4",
          "logIndex": "0x2",
          "removed": false
        },
        {
          "address": "0xACC51FFDeF63fB0c014c882267C3A17261A5eD50",
          "topics": [
            "0x2f658b440c35314f52658ea8a740e05b284cdc84dc9ae01e891f21b8933e7cad"
          ],
          "data": "0x00000000000000000000000091bda4174c25efeef6f4e5721fa36e31e0015801",
          "blockHash": "0xcff2a4996f4ea15a4e3285a408bef7c64c5efeb8dd48523bc3c9aa197a1776bf",
          "blockNumber": "0xbb7b6c5",
          "transactionHash": "0x02ff69d9a65543a48bc2ff5b6466bb64daf41f75b622f9f9b668ef7b6baefcd4",
          "transactionIndex": "0x4",
          "logIndex": "0x3",
          "removed": false
        },
        {
          "address": "0xACC51FFDeF63fB0c014c882267C3A17261A5eD50",
          "topics": [
            "0xc7f505b2f371ae2175ee4913f4499e1f2633a7b5936321eed1cdaeb6115181d2"
          ],
          "data": "0x0000000000000000000000000000000000000000000000000000000000000001",
          "blockHash": "0xcff2a4996f4ea15a4e3285a408bef7c64c5efeb8dd48523bc3c9aa197a1776bf",
          "blockNumber": "0xbb7b6c5",
          "transactionHash": "0x02ff69d9a65543a48bc2ff5b6466bb64daf41f75b622f9f9b668ef7b6baefcd4",
          "transactionIndex": "0x4",
          "logIndex": "0x4",
          "removed": false
        }
      ],
      "status": "0x1",
      "logsBloom": "0x00000000000000000000000000000000420000400000000000000000000000000000000000000000000000000000000000000000000000000000000000000000000000000000000000000000000002000000000000000000000000000000000000000000000000000000000000000400000000000000000000000000000000000000000000000000000800000000000008000000000080000000000000000000000000000000000000000000000000000000000000000000000000000000000000000020020000000000100000000000000000000004000000000000040000000000000000000000000008000000000000000000000000000000000001000000",
      "type": "0x0",
      "effectiveGasPrice": "0x989680"
    }
  ],
  "libraries": [],
  "pending": [],
  "returns": {},
  "timestamp": 1712005281,
  "chain": 42161,
  "multi": false,
  "commit": "a5be754"
}