{
  "transactions": [
    {
      "hash": "0xcb997c00107118d9b03f0b41d62695c1ec79067508fe9e8ee3446053e6ce3aa5",
      "transactionType": "CALL",
      "contractName": null,
      "contractAddress": "0x9fBB3DF7C40Da2e5A0dE984fFE2CCB7C47cd0ABf",
      "function": "deploy(bytes32,bytes)",
      "arguments": [
        "0x7853594b00000000000000000000000000000000000000000000000000000000",
        "0x608060405260405161040a38038061040a83398101604081905261002291610268565b61002c8282610033565b5050610352565b61003c82610092565b6040516001600160a01b038316907fbc7cd75a20ee27fd9adebab32041f755214dbc6bffa90cc0225b39da2e5c2d3b90600090a280511561008657610081828261010e565b505050565b61008e610185565b5050565b806001600160a01b03163b6000036100cd57604051634c9c8ce360e01b81526001600160a01b03821660048201526024015b60405180910390fd5b7f360894a13ba1a3210667c828492db98dca3e2076cc3735a920a3ca505d382bbc80546001600160a01b0319166001600160a01b0392909216919091179055565b6060600080846001600160a01b03168460405161012b9190610336565b600060405180830381855af49150503d8060008114610166576040519150601f19603f3d011682016040523d82523d6000602084013e61016b565b606091505b50909250905061017c8583836101a6565b95945050505050565b34156101a45760405163b398979f60e01b815260040160405180910390fd5b565b6060826101bb576101b682610205565b6101fe565b81511580156101d257506001600160a01b0384163b155b156101fb57604051639996b31560e01b81526001600160a01b03851660048201526024016100c4565b50805b9392505050565b8051156102155780518082602001fd5b604051630a12f52160e11b815260040160405180910390fd5b634e487b7160e01b600052604160045260246000fd5b60005b8381101561025f578181015183820152602001610247565b50506000910152565b6000806040838503121561027b57600080fd5b82516001600160a01b038116811461029257600080fd5b60208401519092506001600160401b03808211156102af57600080fd5b818501915085601f8301126102c357600080fd5b8151818111156102d5576102d561022e565b604051601f8201601f19908116603f011681019083821181831017156102fd576102fd61022e565b8160405282815288602084870101111561031657600080fd5b610327836020830160208801610244565b80955050505050509250929050565b60008251610348818460208701610244565b9190910192915050565b60aa806103606000396000f3fe6080604052600a600c565b005b60186014601a565b6051565b565b6000604c7f360894a13ba1a3210667c828492db98dca3e2076cc3735a920a3ca505d382bbc546001600160a01b031690565b905090565b3660008037600080366000845af43d6000803e808015606f573d6000f35b3d6000fdfea264697066735822122076efb2559dd012d0004d0e971ab9f300a5bcd6a5b160a4d8726f19682eb3e32864736f6c634300081700330000000000000000000000004e266330f9573166647f1baff0088f4b8b44766700000000000000000000000000000000000000000000000000000000000000400000000000000000000000000000000000000000000000000000000000000044485cc955000000000000000000000000acc51ffdef63fb0c014c882267c3a17261a5ed5000000000000000000000000091bda4174c25efeef6f4e5721fa36e31e001580100000000000000000000000000000000000000000000000000000000"
      ],
      "transaction": {
        "type": "0x00",
        "from": "0xf885390b75035e94ac72aef3e0d0ed5ec3b85d37",
        "to": "0x9fbb3df7c40da2e5a0de984ffe2ccb7c47cd0abf",
        "gas": "0x63cd23",
        "value": "0x0",
        "data": "0xcdcb760a7853594b00000000000000000000000000000000000000000000000000000000000000000000000000000000000000000000000000000000000000000000004000000000000000000000000000000000000000000000000000000000000004ca608060405260405161040a38038061040a83398101604081905261002291610268565b61002c8282610033565b5050610352565b61003c82610092565b6040516001600160a01b038316907fbc7cd75a20ee27fd9adebab32041f755214dbc6bffa90cc0225b39da2e5c2d3b90600090a280511561008657610081828261010e565b505050565b61008e610185565b5050565b806001600160a01b03163b6000036100cd57604051634c9c8ce360e01b81526001600160a01b03821660048201526024015b60405180910390fd5b7f360894a13ba1a3210667c828492db98dca3e2076cc3735a920a3ca505d382bbc80546001600160a01b0319166001600160a01b0392909216919091179055565b6060600080846001600160a01b03168460405161012b9190610336565b600060405180830381855af49150503d8060008114610166576040519150601f19603f3d011682016040523d82523d6000602084013e61016b565b606091505b50909250905061017c8583836101a6565b95945050505050565b34156101a45760405163b398979f60e01b815260040160405180910390fd5b565b6060826101bb576101b682610205565b6101fe565b81511580156101d257506001600160a01b0384163b155b156101fb57604051639996b31560e01b81526001600160a01b03851660048201526024016100c4565b50805b9392505050565b8051156102155780518082602001fd5b604051630a12f52160e11b815260040160405180910390fd5b634e487b7160e01b600052604160045260246000fd5b60005b8381101561025f578181015183820152602001610247565b50506000910152565b6000806040838503121561027b57600080fd5b82516001600160a01b038116811461029257600080fd5b60208401519092506001600160401b03808211156102af57600080fd5b818501915085601f8301126102c357600080fd5b8151818111156102d5576102d561022e565b604051601f8201601f19908116603f011681019083821181831017156102fd576102fd61022e565b8160405282815288602084870101111561031657600080fd5b610327836020830160208801610244565b80955050505050509250929050565b60008251610348818460208701610244565b9190910192915050565b60aa806103606000396000f3fe6080604052600a600c565b005b60186014601a565b6051565b565b6000604c7f360894a13ba1a3210667c828492db98dca3e2076cc3735a920a3ca505d382bbc546001600160a01b031690565b905090565b3660008037600080366000845af43d6000803e808015606f573d6000f35b3d6000fdfea264697066735822122076efb2559dd012d0004d0e971ab9f300a5bcd6a5b160a4d8726f19682eb3e32864736f6c634300081700330000000000000000000000004e266330f9573166647f1baff0088f4b8b44766700000000000000000000000000000000000000000000000000000000000000400000000000000000000000000000000000000000000000000000000000000044485cc955000000000000000000000000acc51ffdef63fb0c014c882267c3a17261a5ed5000000000000000000000000091bda4174c25efeef6f4e5721fa36e31e00158010000000000000000000000000000000000000000000000000000000000000000000000000000000000000000000000000000",
        "nonce": "0x5"
      },
      "additionalContracts": [
        {
          "transactionType": "CREATE2",
          "address": "0x772cC8619F2b36d1Ac9dfc2E61551f566d59eCA0",
          "initCode": "0x67363d3d37363d34f03d5260086018f3"
        },
        {
          "transactionType": "CREATE",
          "address": "0x50E04E222Fc1be96E94E86AcF1136cB0E97E1d40",
          "initCode": "0x608060405260405161040a38038061040a83398101604081905261002291610268565b61002c8282610033565b5050610352565b61003c82610092565b6040516001600160a01b038316907fbc7cd75a20ee27fd9adebab32041f755214dbc6bffa90cc0225b39da2e5c2d3b90600090a280511561008657610081828261010e565b505050565b61008e610185565b5050565b806001600160a01b03163b6000036100cd57604051634c9c8ce360e01b81526001600160a01b03821660048201526024015b60405180910390fd5b7f360894a13ba1a3210667c828492db98dca3e2076cc3735a920a3ca505d382bbc80546001600160a01b0319166001600160a01b0392909216919091179055565b6060600080846001600160a01b03168460405161012b9190610336565b600060405180830381855af49150503d8060008114610166576040519150601f19603f3d011682016040523d82523d6000602084013e61016b565b606091505b50909250905061017c8583836101a6565b95945050505050565b34156101a45760405163b398979f60e01b815260040160405180910390fd5b565b6060826101bb576101b682610205565b6101fe565b81511580156101d257506001600160a01b0384163b155b156101fb57604051639996b31560e01b81526001600160a01b03851660048201526024016100c4565b50805b9392505050565b8051156102155780518082602001fd5b604051630a12f52160e11b815260040160405180910390fd5b634e487b7160e01b600052604160045260246000fd5b60005b8381101561025f578181015183820152602001610247565b50506000910152565b6000806040838503121561027b57600080fd5b82516001600160a01b038116811461029257600080fd5b60208401519092506001600160401b03808211156102af57600080fd5b818501915085601f8301126102c357600080fd5b8151818111156102d5576102d561022e565b604051601f8201601f19908116603f011681019083821181831017156102fd576102fd61022e565b8160405282815288602084870101111561031657600080fd5b610327836020830160208801610244565b80955050505050509250929050565b60008251610348818460208701610244565b9190910192915050565b60aa806103606000396000f3fe6080604052600a600c565b005b60186014601a565b6051565b565b6000604c7f360894a13ba1a3210667c828492db98dca3e2076cc3735a920a3ca505d382bbc546001600160a01b031690565b905090565b3660008037600080366000845af43d6000803e808015606f573d6000f35b3d6000fdfea264697066735822122076efb2559dd012d0004d0e971ab9f300a5bcd6a5b160a4d8726f19682eb3e32864736f6c634300081700330000000000000000000000004e266330f9573166647f1baff0088f4b8b44766700000000000000000000000000000000000000000000000000000000000000400000000000000000000000000000000000000000000000000000000000000044485cc955000000000000000000000000acc51ffdef63fb0c014c882267c3a17261a5ed5000000000000000000000000091bda4174c25efeef6f4e5721fa36e31e001580100000000000000000000000000000000000000000000000000000000"
        }
      ],
      "isFixedGasLimit": false
    },
    {
      "hash": "0x8d1b51524b7fde476cc6b2f3253a3b03dbddbd488f22b04eae122d504b6aedea",
      "transactionType": "CALL",
      "contractName": "ERC1967Proxy",
      "contractAddress": "0x50E04E222Fc1be96E94E86AcF1136cB0E97E1d40",
      "function": null,
      "arguments": null,
      "transaction": {
        "type": "0x00",
        "from": "0xf885390b75035e94ac72aef3e0d0ed5ec3b85d37",
        "to": "0x50e04e222fc1be96e94e86acf1136cb0e97e1d40",
        "gas": "0xec0f5",
        "value": "0x0",
        "data": "0x499b5b7c000000000000000000000000f885390b75035e94ac72aef3e0d0ed5ec3b85d37",
        "nonce": "0x6"
      },
      "additionalContracts": [],
      "isFixedGasLimit": false
    }
  ],
  "receipts": [
    {
      "transactionHash": "0xcb997c00107118d9b03f0b41d62695c1ec79067508fe9e8ee3446053e6ce3aa5",
      "transactionIndex": "0x1",
      "blockHash": "0xf1ee9675143530ddfd4e16c2395d0fd31496fb50956db86d29f0dfdcaeb95896",
      "blockNumber": "0xbb7c14b",
      "from": "0xf885390B75035e94ac72AeF3E0D0eD5ec3b85d37",
      "to": "0x9fBB3DF7C40Da2e5A0dE984fFE2CCB7C47cd0ABf",
      "cumulativeGasUsed": "0x439fc9",
      "gasUsed": "0x439fc9",
      "contractAddress": null,
      "logs": [
        {
          "address": "0x50E04E222Fc1be96E94E86AcF1136cB0E97E1d40",
          "topics": [
            "0xbc7cd75a20ee27fd9adebab32041f755214dbc6bffa90cc0225b39da2e5c2d3b",
            "0x0000000000000000000000004e266330f9573166647f1baff0088f4b8b447667"
          ],
          "data": "0x",
          "blockHash": "0xf1ee9675143530ddfd4e16c2395d0fd31496fb50956db86d29f0dfdcaeb95896",
          "blockNumber": "0xbb7c14b",
          "transactionHash": "0xcb997c00107118d9b03f0b41d62695c1ec79067508fe9e8ee3446053e6ce3aa5",
          "transactionIndex": "0x1",
          "logIndex": "0x0",
          "removed": false
        },
        {
          "address": "0x50E04E222Fc1be96E94E86AcF1136cB0E97E1d40",
          "topics": [
            "0x2f658b440c35314f52658ea8a740e05b284cdc84dc9ae01e891f21b8933e7cad"
          ],
          "data": "0x00000000000000000000000091bda4174c25efeef6f4e5721fa36e31e0015801",
          "blockHash": "0xf1ee9675143530ddfd4e16c2395d0fd31496fb50956db86d29f0dfdcaeb95896",
          "blockNumber": "0xbb7c14b",
          "transactionHash": "0xcb997c00107118d9b03f0b41d62695c1ec79067508fe9e8ee3446053e6ce3aa5",
          "transactionIndex": "0x1",
          "logIndex": "0x1",
          "removed": false
        },
        {
          "address": "0x50E04E222Fc1be96E94E86AcF1136cB0E97E1d40",
          "topics": [
            "0xc7f505b2f371ae2175ee4913f4499e1f2633a7b5936321eed1cdaeb6115181d2"
          ],
          "data": "0x0000000000000000000000000000000000000000000000000000000000000001",
          "blockHash": "0xf1ee9675143530ddfd4e16c2395d0fd31496fb50956db86d29f0dfdcaeb95896",
          "blockNumber": "0xbb7c14b",
          "transactionHash": "0xcb997c00107118d9b03f0b41d62695c1ec79067508fe9e8ee3446053e6ce3aa5",
          "transactionIndex": "0x1",
          "logIndex": "0x2",
          "removed": false
        }
      ],
      "status": "0x1",
      "logsBloom": "0x00000000000000000000000000000000400000000000000000000000000000000000000000000000000000000000000000000000000000000000000000000000000000000000000000000000000002000000000000000000000000000000000000000000000000000000000000100000000000000000000000000000000000000000000000000000000800000000000008000000000080000000000000000000000000000000008000000000000000000000000000000002000000000000000000000020000000000000100200000080000001000004000000000000000000000000000000000000000008000000000000000000000000000000000000000000",
      "type": "0x0",
      "effectiveGasPrice": "0x989680"
    },
    {
      "transactionHash": "0x8d1b51524b7fde476cc6b2f3253a3b03dbddbd488f22b04eae122d504b6aedea",
      "transactionIndex": "0x6",
      "blockHash": "0x8a402b7abdac6f99ca03e728e01636e33a9c8e477b35a537958bad6cd7623f9a",
      "blockNumber": "0xbb7c150",
      "from": "0xf885390B75035e94ac72AeF3E0D0eD5ec3b85d37",
      "to": "0x50E04E222Fc1be96E94E86AcF1136cB0E97E1d40",
      "cumulativeGasUsed": "0x7dbb47",
      "gasUsed": "0x8c092",
      "contractAddress": null,
      "logs": [
        {
          "address": "0x50E04E222Fc1be96E94E86AcF1136cB0E97E1d40",
          "topics": [
            "0xb8b4e02402a8b60f4c92e61eb2625e280403b39046e78201ae61ecf5c7b42580"
          ],
          "data": "0x000000000000000000000000f885390b75035e94ac72aef3e0d0ed5ec3b85d37",
          "blockHash": "0x8a402b7abdac6f99ca03e728e01636e33a9c8e477b35a537958bad6cd7623f9a",
          "blockNumber": "0xbb7c150",
          "transactionHash": "0x8d1b51524b7fde476cc6b2f3253a3b03dbddbd488f22b04eae122d504b6aedea",
          "transactionIndex": "0x6",
          "logIndex": "0x17",
          "removed": false
        }
      ],
      "status": "0x1",
      "logsBloom": "0x00000000000000000000000000000000000000000000000080000000000000000000000000000000000000000000000000000000000000000000000000000000000000000000000000000000000000000000000000000000000000000000000000000000000000000000000000100000000000000000000000000000000000000000000000000000000000000000000000000000000000000000000000000000000000000000009000000000000000000000000000000000000000000000000000000000000000000000000000000000000001000008000000000000000000000000000000000000000000000000000000000000000000000000000000000000",
      "type": "0x0",
      "effectiveGasPrice": "0x989680"
    }
  ],
  "libraries": [],
  "pending": [],
  "returns": {},
  "timestamp": 1712005963,
  "chain": 42161,
  "multi": false,
  "commit": "a5be754"
}